:020000040800F2
:1000000000500020B91A0008DD150008DF150008AF
:10001000E1150008E3150008E515000800000000E0
:10002000000000000000000000000000E7150008CC
:10003000E915000800000000EB150008ED150008A8
:10004000011B0008011B0008011B0008011B000820
:10005000011B0008011B0008011B0008011B000810
:10006000011B0008011B0008011B0008011B000800
:10007000011B0008011B0008011B0008011B0008F0
:10008000011B0008011B0008011B0008011B0008E0
:10009000011B0008011B0008011B0008011B0008D0
:1000A000011B0008011B0008011B0008011B0008C0
:1000B000011B0008011B0008F5150008011B0008C2
:1000C000011B0008011B0008011B0008011B0008A0
:1000D000011B000805160008011B0008011B000891
:1000E000011B0008011B0008011B000800000000A4
:1000F0000000000000000000000000000000000000
:0C01000000000000000000005FF808F1A3
:1001100010B5054C237833B9044B13B10448AFF341
:1001200000800123237010BDBC09002000000000E6
:10013000448B000808B5034B1BB103490348AFF3D8
:10014000008008BD00000000C0090020448B0008AA
:100150004FF0FF0C1CEAD0521EBF1CEAD15392EAAA
:100160000C0F93EA0C0F6FD01A4480EA010C400286
:1001700018BF5FEA41211ED04FF0006343EA5010E0
:1001800043EA5111A0FB01310CF00040B1F5000F22
:100190003EBF490041EAD3715B0040EA010062F1D1
:1001A0007F02FD2A1DD8B3F1004F40EBC25008BFBB
:1001B00020F00100704790F0000F0CF0004C08BFD9
:1001C00049024CEA502040EA51207F3AC2BFD2F1A6
:1001D000FF0340EAC250704740F400004FF00003B4
:1001E000013A5DDC12F1190FDCBF00F000407047EE
:1001F000C2F10002410021FA02F1C2F1200200FA2C
:1002000002FC5FEA310040F1000053EA4C0308BFF2
:1002100020EADC70704792F0000F00F0004C02BF43
:10022000400010F4000F013AF9D040EA0C0093F0BE
:10023000000F01F0004C02BF490011F4000F013B18
:10024000F9D041EA0C018FE70CEAD15392EA0C0F86
:1002500018BF93EA0C0F0AD030F0004C18BF31F0F1
:10026000004CD8D180EA010000F00040704790F0C7
:10027000000F17BF90F0004F084691F0000F91F06B
:10028000004F14D092EA0C0F01D142020FD193EA31
:100290000C0F03D14B0218BF084608D180EA0100B9
:1002A00000F0004040F0FE4040F40000704740F095
:1002B000FE4040F44000704780F0004002E000BF84
:1002C00081F0004142001FBF5FEA410392EA030F41
:1002D0007FEA226C7FEA236C6AD04FEA1262D2EB8B
:1002E0001363C1BFD218414048404140B8BF5B4290
:1002F000192B88BF704710F0004F40F4000020F029
:100300007F4018BF404211F0004F41F4000121F03E
:100310007F4118BF494292EA030F3FD0A2F1010288
:1003200041FA03FC10EB0C00C3F1200301FA03F1C6
:1003300000F0004302D5494260EB4000B0F5000FE9
:1003400013D3B0F1807F06D340084FEA310102F1A8
:100350000102FE2A51D2B1F1004F40EBC25008BF5A
:1003600020F0010040EA03007047490040EB000024
:10037000013A28BFB0F5000FEDD2B0FA80FCACF125
:10038000080CB2EB0C0200FA0CF0AABF00EBC25052
:1003900052421843BCBFD0401843704792F0000F40
:1003A00081F4000106BF80F400000132013BB5E793
:1003B0004FEA41037FEA226C18BF7FEA236C21D009
:1003C00092EA030F04D092F0000F08BF084670476E
:1003D00090EA010F1CBF0020704712F07F4F04D13C
:1003E000400028BF40F00040704712F100723CBF4F
:1003F00000F50000704700F0004343F0FE4040F479
:10040000000070477FEA226216BF08467FEA236336
:100410000146420206BF5FEA412390EA010F40F421
:10042000800070474FF0000304E000BF10F000436D
:1004300048BF40425FEA000C08BF704743F0964354
:1004400001464FF000001CE050EA010208BF70476F
:100450004FF000030AE000BF50EA010208BF7047F6
:1004600011F0004302D5404261EB41015FEA010C0B
:1004700002BF84460146002043F0B64308BFA3F103
:100480008053A3F50003BCFA8CF2083AA3EBC253E5
:1004900010DB01FA02FC634400FA02FCC2F1200204
:1004A000BCF1004F20FA02F243EB020008BF20F03B
:1004B0000100704702F1200201FA02FCC2F12002A1
:1004C00050EA4C0021FA02F243EB020008BF20EA96
:1004D000DC7070474FF0FF3C06E000BF4FF0010CAE
:1004E00002E000BF4FF0010C4DF804CD4FEA40028E
:1004F0004FEA41037FEA226C18BF7FEA236C11D0D8
:1005000001B052EA530C18BF90EA010F58BFB2EB8A
:10051000030088BFC81738BF6FEAE17018BF40F00A
:10052000010070477FEA226C02D15FEA402C05D1BE
:100530007FEA236CE4D15FEA412CE1D05DF8040B43
:10054000704700BF844608466146FFE70FB5FFF7D6
:10055000C9FF002848BF10F1000F0FBD4DF808ED8E
:10056000FFF7F4FF0CBF012000205DF808FB00BF7F
:100570004DF808EDFFF7EAFF34BF012000205DF8D9
:1005800008FB00BF4DF808EDFFF7E0FF94BF012026
:1005900000205DF808FB00BF4DF808EDFFF7D2FF23
:1005A00094BF012000205DF808FB00BF4DF808ED66
:1005B000FFF7C8FF34BF012000205DF808FB00BF33
:1005C000844641EA000313F0030349D1403A23D3A0
:1005D0000B6803604B6843608B688360CB68C360C3
:1005E0000B6903614B6943618B698361CB69C361AB
:1005F0000B6A03624B6A43628B6A8362CB6AC36293
:100600000B6B03634B6B43638B6B8363CB6BC3637A
:1006100040304031403ADBD230320BD30B680360BC
:100620004B6843608B688360CB68C36010301031C7
:10063000103AF3D20C3205D351F8043B40F8043B96
:10064000043AF9D2043208D0D2071CBF11F8013B9A
:1006500000F8013B01D30B8803806046704700BF60
:10066000082A13D38B07B1D010F00303AED0C3F127
:100670000403D21ADB071CBF11F8013B00F8013B51
:10068000A4D331F8023B20F8023B9FE7043AD9D3C8
:10069000013A11F8013B00F8013BF9D20B780370E5
:1006A0004B7843708B7883706046704781F00041CF
:1006B00002E000BF83F0004330B54FEA41044FEA47
:1006C000430594EA050F08BF90EA020F1FBF54EAE2
:1006D000000C55EA020C7FEA645C7FEA655C00F07E
:1006E000E2804FEA5454D4EB5555B8BF6D420CDD4F
:1006F0002C4480EA020281EA030382EA000083EAD2
:10070000010180EA020281EA0303362D88BF30BD71
:1007100011F0004F4FEA01314FF4801C4CEA1131C7
:1007200002D0404261EB410113F0004F4FEA033326
:100730004CEA133302D0524263EB430394EA050FB1
:1007400000F0A780A4F10104D5F1200E0DDB02FA20
:100750000EFC22FA05F2801841F1000103FA0EF2B4
:10076000801843FA05F359410EE0A5F120050EF17A
:10077000200E012A03FA0EFC28BF4CF0020C43FAAB
:1007800005F3C01851EBE37101F0004507D54FF0B8
:10079000000EDCF1000C7EEB00006EEB0101B1F508
:1007A000801F1BD3B1F5001F0CD349085FEA30004E
:1007B0004FEA3C0C04F101044FEA445212F5800F59
:1007C00080F09A80BCF1004F08BF5FEA500C50F1F6
:1007D000000041EB045141EA050130BD5FEA4C0CD9
:1007E000404141EB0101013C28BFB1F5801FE9D236
:1007F00091F0000F04BF01460020B1FA81F308BF59
:100800002033A3F10B03B3F120020CDA0C3208DD24
:1008100002F1140CC2F10C0201FA0CF021FA02F1FF
:100820000CE002F11402D8BFC2F1200C01FA02F16F
:1008300020FA0CFCDCBF41EA0C019040E41AA2BF94
:1008400001EB0451294330BD6FEA04041F3C1CDA5C
:100850000C340EDC04F11404C4F1200220FA04F07C
:1008600001FA02F340EA030021FA04F345EA030126
:1008700030BDC4F10C04C4F1200220FA02F001FAE8
:1008800004F340EA0300294630BD21FA04F029466A
:1008900030BD94F0000F83F4801306BF81F4801103
:1008A0000134013D4EE77FEA645C18BF7FEA655C76
:1008B00029D094EA050F08BF90EA020F05D054EA48
:1008C000000C04BF1946104630BD91EA030F1EBF4D
:1008D0000021002030BD5FEA545C05D14000494151
:1008E00028BF41F0004130BD14F580043CBF01F544
:1008F000801130BD01F0004545F0FE4141F470012A
:100900004FF0000030BD7FEA645C1ABF1946104604
:100910007FEA655C1CBF0B46024650EA013406BF05
:1009200052EA033591EA030F41F4002130BD00BFC4
:1009300090F0000F04BF0021704730B54FF4806481
:1009400004F132044FF000054FF0000150E700BF02
:1009500090F0000F04BF0021704730B54FF4806461
:1009600004F1320410F0004548BF40424FF000014E
:100970003EE700BF42004FEAE2014FEA31014FEA91
:1009800002701FBF12F07F4393F07F4F81F06051E0
:10099000704732F07F4208BF704793F07F4F04BF2B
:1009A00041F40021704730B54FF4607401F0004508
:1009B00021F000411CE700BF50EA010208BF704768
:1009C00030B54FF000050AE050EA010208BF704759
:1009D00030B511F0004502D5404261EB41014FF4C2
:1009E000806404F132045FEA915C3FF4D8AE4FF0CA
:1009F00003025FEADC0C18BF03325FEADC0C18BFAD
:100A0000033202EBDC02C2F1200300FA03FC20FAFD
:100A100002F001FA03FE40EA0E0021FA02F114444A
:100A2000BDE600BF70B54FF0FF0C4CF4E06C1CEA63
:100A300011541DBF1CEA135594EA0C0F95EA0C0FD4
:100A400000F0DEF82C4481EA030621EA4C5123EA47
:100A50004C5350EA013518BF52EA033541F4801176
:100A600043F4801338D0A0FB02CE4FF00005E1FB29
:100A700002E506F00042E0FB03E54FF00006E1FB73
:100A800003569CF0000F18BF4EF0010EA4F1FF04B6
:100A9000B6F5007F64F5407404D25FEA4E0E6D41F6
:100AA00046EB060642EAC62141EA55514FEAC52007
:100AB00040EA5E504FEACE2EB4F1FD0C88BFBCF583
:100AC000E06F1ED8BEF1004F08BF5FEA500E50F134
:100AD000000041EB045170BD06F0004646EA0101FA
:100AE00040EA020081EA0301B4EB5C04C2BFD4EB2C
:100AF0000C0541EA045170BD41F480114FF0000E25
:100B0000013C00F3AB8014F1360FDEBF002001F092
:100B1000004170BDC4F10004203C35DA0C341BDC0C
:100B200004F11404C4F1200500FA05F320FA04F0DE
:100B300001FA05F240EA020001F0004221F0004112
:100B400010EBD37021FA04F642EB06015EEA430E85
:100B500008BF20EAD37070BDC4F10C04C4F12005B5
:100B600000FA04F320FA05F001FA04F240EA020068
:100B700001F0004110EBD37041F100015EEA430E39
:100B800008BF20EAD37070BDC4F1200500FA05F259
:100B90004EEA020E20FA04F301FA05F243EA0203D8
:100BA00021FA04F001F0004121FA04F220EA0200E7
:100BB00000EBD3705EEA430E08BF20EAD37070BD2D
:100BC00094F0000F0FD101F00046400041EB01010D
:100BD00011F4801F08BF013CF7D041EA060195F0EF
:100BE000000F18BF704703F00046520043EB0303A9
:100BF00013F4801F08BF013DF7D043EA0603704796
:100C000094EA0C0F0CEA135518BF95EA0C0F0CD0A0
:100C100050EA410618BF52EA4306D1D181EA0301E6
:100C200001F000414FF0000070BD50EA410606BFE0
:100C30001046194652EA430619D094EA0C0F02D125
:100C400050EA013613D195EA0C0F05D152EA03366A
:100C50001CBF104619460AD181EA030101F0004188
:100C600041F0FE4141F470014FF0000070BD41F0D1
:100C7000FE4141F4780170BD70B54FF0FF0C4CF4AB
:100C8000E06C1CEA11541DBF1CEA135594EA0C0FCA
:100C900095EA0C0F00F0A7F8A4EB050481EA030E17
:100CA00052EA03354FEA013100F088804FEA0333FE
:100CB0004FF0805545EA131343EA12634FEA0222CC
:100CC00045EA111545EA10654FEA00260EF000418D
:100CD0009D4208BF964244F1FD0404F5407402D2DF
:100CE0005B084FEA3202B61A65EB03055B084FEA70
:100CF00032024FF480104FF4002CB6EB020E75EB6D
:100D0000030E22BFB61A754640EA0C005B084FEA94
:100D10003202B6EB020E75EB030E22BFB61A754611
:100D200040EA5C005B084FEA3202B6EB020E75EB5C
:100D3000030E22BFB61A754640EA9C005B084FEAD4
:100D40003202B6EB020E75EB030E22BFB61A7546E1
:100D500040EADC0055EA060E18D04FEA051545EAD0
:100D600016754FEA06164FEAC30343EA52734FEA79
:100D7000C2025FEA1C1CC0D111F4801F0BD141EAF2
:100D800000014FF000004FF0004CB6E711F4801F57
:100D900004BF01430020B4F1FD0C88BFBCF5E06F37
:100DA0003FF6AFAEB5EB030C04BFB6EB020C5FEA47
:100DB000500C50F1000041EB045170BD0EF0004E9C
:100DC0004EEA113114EB5C04C2BFD4EB0C0541EACE
:100DD000045170BD41F480114FF0000E013C90E6CB
:100DE00045EA060E8DE60CEA135594EA0C0F08BF8F
:100DF00095EA0C0F3FF43BAF94EA0C0F0AD150EA8E
:100E000001347FF434AF95EA0C0F7FF425AF104620
:100E100019462CE795EA0C0F06D152EA03353FF448
:100E2000FDAE1046194622E750EA410618BF52EAC5
:100E300043067FF4C5AE50EA41047FF40DAF52EA99
:100E400043057FF4EBAE12E74FF0FF3C06E000BF36
:100E50004FF0010C02E000BF4FF0010C4DF804CD43
:100E60004FEA410C7FEA6C5C4FEA430C18BF7FEA03
:100E70006C5C1BD001B050EA410C0CBF52EA430C31
:100E800091EA030F02BF90EA020F0020704710F1B1
:100E9000000F91EA030F58BF994208BF90422CBF40
:100EA000D8176FEAE37040F0010070474FEA410C39
:100EB0007FEA6C5C02D150EA013C07D14FEA430C57
:100EC0007FEA6C5CD6D152EA033CD3D05DF8040BC8
:100ED000704700BF8446104662468C4619466346FA
:100EE00000E000BF01B5FFF7B7FF002848BF10F1D1
:100EF000000F01BD4DF808EDFFF7F4FF0CBF012016
:100F000000205DF808FB00BF4DF808EDFFF7EAFF91
:100F100034BF012000205DF808FB00BF4DF808ED4C
:100F2000FFF7E0FF94BF012000205DF808FB00BF41
:100F30004DF808EDFFF7CEFF94BF012000205DF8CB
:100F400008FB00BF4DF808EDFFF7C4FF34BF0120D8
:100F500000205DF808FB00BF4FEA410C7FEA6C5CA3
:100F600002D150EA013C0AD14FEA430C7FEA6C5CA3
:100F700002D152EA033C02D14FF0000070474FF01B
:100F8000010070474A0011D212F5001211D20DD59E
:100F90006FF47873B3EB62520ED44FEAC12343F07F
:100FA000004343EA505323FA02F070474FF0000029
:100FB000704750EA013002D14FF0FF3070474FF0D8
:100FC000000070474FEA4102B2F1E04324BFB3F59D
:100FD000001CDCF1FE5C0DD901F0004C4FEAC002B0
:100FE0004CEA5070B2F1004F40EB830008BF20F094
:100FF0000100704711F0804F21D113F13872BCBF4E
:1010000001F00040704741F480114FEA5252C2F1A2
:101010001802C2F1200C10FA0CF320FA02F018BFEB
:1010200040F001004FEAC1234FEAD32303FA0CFC3E
:1010300040EA0C0023FA02F34FEA4303CCE77FEACD
:10104000625307D150EA01331EBF4FF0FE4040F417
:101050004000704701F0004040F0FE4040F40000C6
:10106000704700BF4FEA40024FEA41037FEA226C1B
:1010700002D15FEA402C08D17FEA236C02D15FEAFB
:10108000412C02D14FF0000070474FF00100704733
:1010900053B94AB9002908BF00281CBF4FF0FF31DF
:1010A0004FF0FF3000F0AEB9ADF1080C6DE904CEA1
:1010B00000F03EF8DDF804E0DDE9022304B07047FB
:1010C00038B505460C460022002328462146FFF786
:1010D0001BFF28B928462146BDE8384000F00AB871
:1010E000284604F1004100F005F8404261EB41015F
:1010F00038BD00BFD0B500220B4B06460F46FFF7A8
:1011000091FCFFF73FFF0446FFF712FC0022074B5C
:10111000FFF788FC02460B4630463946FFF7CAFA0D
:10112000FFF730FF2146D0BD0000F03D0000F04148
:101130002DE9F047089E0D4604468846002B4DD108
:101140008A42944668D9B2FA82F252B101FA02F3A5
:10115000C2F1200120FA01F10CFA02FC41EA030875
:1011600094404FEA1C41B8FBF1F71FFA8CFE01FBDB
:10117000178807FB0EF0230C43EA084398420AD96C
:101180001CEB030307F1FF3580F01E81984240F20B
:101190001B81023F63441B1AB3FBF1F001FB1033C8
:1011A00000FB0EFEA4B244EA0344A6450AD91CEB98
:1011B000040400F1FF3380F00981A64540F2068166
:1011C000644402380021A4EB0E0440EA07401EB13B
:1011D0000023D440C6E90043BDE8F0878B4208D91C
:1011E000002E00F0EE800021C6E900050846BDE8AB
:1011F000F087B3FA83F100294AD1AB4202D382428D
:1012000000F2FC80841A65EB030301209846002E4F
:10121000E2D0C6E90048DFE702B9FFDEB2FA82F2A7
:10122000002A40F09180A1EB0C0001214FEA1C47FD
:101230001FFA8CFEB0FBF7F307FB1300250C45EA01
:1012400000450EFB03F0A84208D91CEB050503F18D
:10125000FF3802D2A84200F2CE8043462D1AB5FBD9
:10126000F7F007FB10550EFB00FEA4B244EA05445C
:10127000A64508D91CEB040400F1FF3502D2A645AF
:1012800000F2B6802846A4EB0E0440EA03409EE735
:10129000C1F120078B4022FA07FC4CEA030C25FA27
:1012A00007FA4FEA1C49BAFBF9F820FA07F309FBE1
:1012B00018AA8D401FFA8CFE1D4300FA01F308FBAB
:1012C0000EF02C0C44EA0A44A04202FA01F20BD9B7
:1012D0001CEB040408F1FF3A80F08880A04240F241
:1012E0008580A8F102086444241AB4FBF9F009FBD4
:1012F000104400FB0EFEADB245EA0444A64508D9F1
:101300001CEB040400F1FF356CD2A6456AD9023803
:10131000644440EA0840A0FB0295A4EB0E04AC42F2
:10132000C846AE4656D353D0002E69D0B3EB080260
:1013300064EB0E0422FA01F304FA07F71F43CC40D2
:10134000C6E90074002147E70CFA02FCC2F1200153
:1013500025FA01F34FEA1C4720FA01F195400D43AD
:10136000B3FBF7F107FB11331FFA8CFE280C40EAA0
:10137000034001FB0EF3834204FA02F408D91CEB8C
:10138000000001F1FF382FD283422DD90239604489
:10139000C01AB0FBF7F307FB1300ADB245EA0045F6
:1013A00003FB0EF0A84208D91CEB050503F1FF383A
:1013B00016D2A84214D9023B6544281A43EA0141D7
:1013C00038E73146304607E72F46E4E61846F9E6A7
:1013D0004B45A9D2B9EB020865EB0C0E0138A3E727
:1013E0004346EAE7284694E74146D1E7D0467BE703
:1013F0006444023847E7023B65442FE7084606E7A6
:101400003146E9E6704700BF30B589B00024049446
:101410000594069407941D4B9A6942F010029A6154
:101420009A6902F010020092009A9A6942F0200232
:101430009A619A6902F020020192019A9A6942F037
:1014400004029A619A6902F004020292029A9A696D
:1014500042F008029A619B6903F008030393039B1F
:101460000B4D22464FF40051284600F097FD4FF4F3
:10147000005304930123059306940223079304A9C0
:10148000284600F079FC09B030BD00BF00100240D2
:101490000010014000B583B001904FF6FF730122A8
:1014A00001A9034801F0E4FD019803B05DF804FBD5
:1014B0007C0A002072B6FEE700B591B02822002118
:1014C00006A802F0A7F80023019302930393049364
:1014D0000593012206924FF4803307930A92022269
:1014E0000D920E934FF4E0130F9306A800F07CFDCD
:1014F00080B90F23019302210291002303934FF43B
:1015000080620492059301A800F0A0FF20B911B0F9
:101510005DF804FBFFF7CEFFFFF7CCFF08B500F046
:1015200017FBFFF7C9FFFFF76FFF00F0B3F900F0FB
:1015300005F900F05BFA01221049114801F0E1FFC2
:10154000104801F011F9104C0021204601F0CEFBAB
:101550000421204601F0CAFB236840F2DC525A63A2
:101560009A630A4801F0E0FF094801F0DDFF0948ED
:1015700002F0F0F8642000F00FFBF8E7C40A002046
:101580007C0A0020240A0020DC090020E00A002058
:10159000080B0020608B000882B00E4B9A6942F065
:1015A00001029A619A6902F001020092009ADA69D6
:1015B00042F08052DA61DB6903F080530193019BB2
:1015C000054A536823F0E06343F00073536002B0B0
:1015D000704700BF0010024000000140FEE7FEE738
:1015E000FEE7FEE7FEE770477047704708B500F07A
:1015F000C1FA08BD08B5024801F0EFF808BD00BF08
:10160000240A002008B5024801F01CFE08BD00BFF6
:101610007C0A00200120704708B501F0D1FF162395
:1016200003604FF0FF3008BD08B54FF0FF31FFF702
:10163000F3FFFEE770B50C461646002506E0AFF353
:101640000080214601F8010B01350C46B542F6DB5E
:10165000304670BD70B50C461646002504E014F8FF
:10166000010BFFF717FF0135B542F8DB304670BDBF
:101670004FF0FF3070474FF400534B60002070472D
:10168000012070470020704710B503460C4A0D49F1
:101690000D48006840B10C4800680344521A934258
:1016A00006D8094A136010BD0748084C0460F2E7E9
:1016B00001F086FF0C2303604FF0FF30F3E700BF1B
:1016C0000050002000040000D8090020780B002002
:1016D0007047000038B50268114B9A4200D038BDFF
:1016E000104C2368013323600F4D104B1B686B6057
:1016F000284601F025FF68620D4D0E4B1B686B609C
:10170000284601F01DFF68622368092BE7DD4FF4CE
:101710000051094800F048FC00222260DFE700BFCA
:10172000000800406C0A0020E00A0020700A002037
:10173000080B0020740A00200010014000B587B09B
:101740000023029303930493059300930193154898
:10175000154A026041F61F42426083606322C26004
:1017600003618023836101F02FF990B94FF4805316
:10177000029302A90B4801F02BFA68B900230093E9
:1017800001936946074801F01FFB40B907B05DF8B7
:1017900004FBFFF78FFEE9E7FFF78CFEEEE7FFF7AC
:1017A00089FEF3E7240A00200008004000B583B05A
:1017B0000368B3F1804F05D0124A93420ED003B0B4
:1017C0005DF804FB03F50433DA6942F00102DA61E3
:1017D000DB6903F001030093009BF0E70A4BDA6931
:1017E00042F00402DA61DB6903F004030193019B18
:1017F000002211461E2000F0F5F91E2000F02AFA02
:10180000DDE700BF000800400010024010B586B0C0
:10181000002302930393049305930368B3F1804F6D
:1018200001D006B010BD03F504339A6942F00402FA
:101830009A619A6902F004020092009A9A6942F051
:1018400008029A619B6903F008030193019B4FF41E
:101850000043029302240394059402A90A4800F06D
:101860008BFA08230293039405940DEB03010748B8
:1018700000F082FA064A536823F4407343F0E063B1
:1018800043F480735360CCE700080140000C014032
:101890000000014000B58FB000230A930B930C9316
:1018A0000D93089309930193029303930493059373
:1018B0000693079326484FF0804202604722426019
:1018C000836044F61F62C26003618023836101F07C
:1018D0007BF858BB4FF480530A930AA91C4801F0C7
:1018E00077F930BB1A4801F09BF828BB0023089316
:1018F000099308A9164801F067FA00BB6023019319
:10190000002202920392059201A9114801F0E6F823
:10191000C0B904220DEB02010D4801F0DFF8A0B9B7
:101920000B48FFF773FF0FB05DF804FBFFF7C2FD34
:10193000D0E7FFF7BFFDD5E7FFF7BCFDD6E7FFF720
:10194000B9FDDBE7FFF7B6FDE3E7FFF7B3FDE7E738
:10195000DC09002038B502681B4B9A4205D00122F1
:101960001A491B4801F0CDFD38BD1A4A11784B1CAD
:10197000DBB21370154A1278174842540A2AEED186
:1019800005460022C254134B1A70144902F074F831
:1019900004461349284602F06FF80546002CDED0B5
:1019A0000028DCD0A01C01F007FE0E4B1860A81C1C
:1019B00001F002FE0C4B1860074B00221A605A60BF
:1019C0009A60DA601A61CAE700380140C40A002050
:1019D0007C0A0020780A0020C80A0020808B0008BA
:1019E000848B0008700A0020740A002008B50A4899
:1019F0000A4B03604FF4E133436000238360C3600C
:101A000003610C2242618361C36101F001FB00B9F3
:101A100008BDFFF74FFDFBE77C0A002000380140BE
:101A200030B587B0002302930393049305930268B3
:101A30001E4B9A4201D007B030BD03F558439A6956
:101A400042F480429A619A6902F480420092009ABC
:101A50009A6942F008029A619B6903F008030193B6
:101A6000019B402302930223039303230593104D0C
:101A700002A9284600F080F98023029300240394F1
:101A8000049402A9284600F077F90A4A536843F003
:101A9000E06343F00403536022462146252000F012
:101AA000A1F8252000F0D6F8C5E700BF00380140B6
:101AB000000C014000000140FFF70AFE0B480C49F2
:101AC0000C4A002302E0D458C4500433C4188C429A
:101AD000F9D3094A094C002301E013600432A24201
:101AE000FBD301F073FDFFF719FD704700000020E4
:101AF000BC090020E4900008BC090020780B0020FD
:101B0000FEE7000010B504460E4B18784FF47A73C8
:101B1000B3FBF0F30C4A1068B0FBF3F000F0A8F848
:101B200068B90F2C01D901200AE0002221464FF0AC
:101B3000FF3000F057F8054B1C60002000E001204A
:101B400010BD00BF0400002000000020080000209D
:101B500008B5074A136843F010031360032000F030
:101B60002FF80F20FFF7CEFFFFF716FD002008BD6E
:101B700000200240034A1168034B1B780B4413609A
:101B8000704700BFDC0A002004000020014B1868E9
:101B9000704700BFDC0A002038B50446FFF7F6FFA7
:101BA0000546B4F1FF3F02D0044B1B781C44FFF7FD
:101BB000EDFF401BA042FAD338BD00BF0400002057
:101BC000074AD36823F4E0631B041B0C000200F4F3
:101BD000E060034343F0BF6343F40033D3607047D6
:101BE00000ED00E000B5194BDB68C3F30223C3F13D
:101BF000070CBCF1040F28BF4FF0040C03F1040ED6
:101C0000BEF1060F18D9033B4FF0FF3E0EFA0CFC55
:101C100021EA0C0199400EFA03F322EA0303194367
:101C200000280BDB0901C9B200F1604000F56140FA
:101C300080F800135DF804FB0023E5E700F00F00D7
:101C40000901C9B2024B1954F4E700BF00ED00E0EE
:101C500014ED00E0002807DB00F01F02400901231B
:101C60009340024A42F82030704700BF00E100E094
:101C70000138B0F1807F0BD24FF0E0235861054A64
:101C8000F02182F823100020986107221A61704722
:101C90000120704700ED00E090F82130DBB2022B0C
:101CA00006D004238363002380F82030012070478E
:101CB0000268136823F00E0313600268136823F0B0
:101CC00001031360036CC16B012202FA03F34B6042
:101CD00080F82120002380F820301846704700004B
:101CE00008B590F82130DBB2022B03D004238363C4
:101CF000012008BD0268136823F00E031360026818
:101D0000136823F0010313600368194A934214D047
:101D1000143293421FD0143293421ED01432934295
:101D20001ED0143293421ED01432934202D04FF090
:101D3000807203E04FF4801200E001220D4B5A60E4
:101D4000012380F82130002380F82030436B6BB1F1
:101D500098470020CDE71022F0E74FF48072EDE7BE
:101D60004FF48052EAE74FF48032E7E70020C0E703
:101D7000080002400000024070B582B00024A44672
:101D8000A6E0804DAA4210D007D97F4DAA420CD0C0
:101D900005F58035AA4208D013E0A5F58015AA42C2
:101DA00003D005F57025AA4207D18A68002A58D0C9
:101DB000012A51D04361082403E0A5F58015AA4209
:101DC000F3D0BEF1FF0F4ED80646BEF1FF0F4CD840
:101DD0004FEA8C0233680F25954023EA050304FA85
:101DE00002F2134333604B6813F0805F6ED0674B91
:101DF0009A6942F001029A619B6903F00103019321
:101E0000019B4FEA9C02951C614B53F825600CF036
:101E100003039D000F23AB4026EA03065D4B984267
:101E200029D003F58063984200F08E8003F580632B
:101E3000984200F08B8003F58063984219D0042308
:101E40001AE0CC68BDE7CC680434BAE7CC68083443
:101E5000B7E7CC680C34B4E703610824B1E7002489
:101E6000AFE70424ADE7061DAFE7ACF1080292002E
:101E7000B0E7032300E00023AB4033430232444D7C
:101E800045F822304B6813F4801F61D0424A9368B2
:101E900043EA0E0393604B6813F4001F5ED03E4A82
:101EA000D36843EA0E03D3604B6813F4003F5BD062
:101EB000394A536843EA0E0353604B6813F4803F7A
:101EC00058D0354A136843EA0E0313600CF1010C35
:101ED0000A6832FA0CF353D0012303FA0CF302EA36
:101EE000030E33EA0202F1D14A68122A3FF649AFE3
:101EF000122A3FF666AF01A555F822F0AB1D000887
:101F0000431E00084D1E00085F1E0008C31D000888
:101F1000C31D0008C31D0008C31D0008C31D000821
:101F2000C31D0008C31D0008C31D0008C31D000811
:101F3000C31D0008C31D0008C31D0008C31D000801
:101F4000471E0008531E0008012395E7022393E76C
:101F5000114A936823EA0E0393609CE70E4AD36804
:101F600023EA0E03D3609FE70B4A536823EA0E036C
:101F70005360A2E7084A136823EA0E031360A5E73B
:101F800002B070BD000022100000311000100240AD
:101F90000000014000080140000401400AB1016155
:101FA0007047090401617047C36801EA030221EA2E
:101FB000030141EA024101617047000082B0084B11
:101FC0001B68084AA2FB03235B0A00FB03F301938F
:101FD00000BF019B5A1E0192002BF9D102B070473D
:101FE00000000020D34D6210002800F0F18170B590
:101FF00082B00446036813F0010F2CD0994B5B6844
:1020000003F00C03042B1DD0964B5B6803F00C030C
:10201000082B12D06368B3F5803F41D0002B55D117
:1020200003F1804303F504331A6822F480321A6006
:102030001A6822F480221A6037E08A4B5B6813F436
:10204000803FE7D0874B1B6813F4003F03D06368E1
:10205000002B00F0BF81236813F0020F75D0814B75
:102060005B6813F00C0F5FD07E4B5B6803F00C03D2
:10207000082B54D02369002B00F08A807A4B012270
:102080001A60FFF783FD0546764B1B6813F0020FBD
:1020900075D1FFF77BFD401B0228F5D903209EE197
:1020A000704A136843F480331360636843B3FFF7E7
:1020B0006DFD05466B4B1B6813F4003FCBD1FFF75A
:1020C00065FD401B6428F5D9032088E1B3F5A02FF6
:1020D00009D0644B1A6822F480321A601A6822F41C
:1020E00080221A60E1E703F18043A3F53C331A68CC
:1020F00042F480221A601A6842F480321A60D4E7EF
:10210000FFF744FD0546574B1B6813F4003FA2D070
:10211000FFF73CFD401B6428F5D903205FE1514BDC
:102120005B6813F4803FA5D14E4B1B6813F0020F80
:1021300003D02369012B40F04F814A4A136823F0F2
:10214000F803616943EAC1031360236813F0080FC1
:1021500033D0A369002B5CD0434B0122C3F8802409
:10216000FFF714FD05463F4B5B6A13F0020F21D1C8
:10217000FFF70CFD401B0228F5D903202FE1394A57
:10218000136823F0F803616943EAC1031360DCE7D5
:10219000354B00221A60FFF7F9FC0546314B1B68EE
:1021A00013F0020FD1D0FFF7F1FC401B0228F5D944
:1021B000032014E10120FFF701FF236813F0040F4F
:1021C00000F09680274BDB6913F0805F34D1254BFC
:1021D000DA6942F08052DA61DB6903F080530193DF
:1021E000019B0125214B1B6813F4807F26D0E368F7
:1021F000012B3DD0002B53D103F1804303F5043371
:102200001A6A22F001021A621A6A22F004021A62A1
:1022100033E0154B0022C3F88024FFF7B7FC0546D6
:10222000104B5B6A13F0020FC7D0FFF7AFFC401BE7
:102230000228F5D90320D2E00025D3E70B4A136822
:1022400043F480731360FFF7A1FC0646074B1B683D
:1022500013F4807FCBD1FFF799FC801B6428F5D95C
:102260000320BCE000100240000042420070004029
:102270005F4A136A43F001031362E36833B3FFF765
:1022800085FC06465A4B1B6A13F0020F2FD1FFF74D
:102290007DFC801B41F288339842F3D903209EE0F5
:1022A000052B09D0524B1A6A22F001021A621A6AEF
:1022B00022F004021A62E0E74D4B1A6A42F004026F
:1022C0001A621A6A42F001021A62D6E7FFF75EFC50
:1022D0000646474B1B6A13F0020F08D0FFF756FC67
:1022E000801B41F288339842F3D9032077E0E5B9A7
:1022F000E369002B72D03E4A526802F00C02082AB1
:1023000056D0022B17D03B4B00221A66FFF73EFC3B
:102310000446374B1B6813F0007F47D0FFF736FCAD
:10232000001B0228F5D9032059E0314AD36923F074
:102330008053D361DCE72F4B00221A66FFF726FC9F
:1023400005462B4B1B6813F0007F06D0FFF71EFCE1
:10235000401B0228F5D9032041E0236AB3F5803FF2
:102360001AD023494B6823F47413226A606A02432B
:1023700013434B601F4B01221A66FFF707FC04460C
:102380001B4B1B6813F0007F0ED1FFF7FFFB001BF8
:102390000228F5D9032022E0154A536823F40033BC
:1023A000A1680B435360DCE7002018E0002016E032
:1023B000012B16D00E4B5B6803F48031226A9142E8
:1023C00011D103F47013626A93420ED1002006E02B
:1023D00001207047012002E0012000E0002002B04F
:1023E00070BD0120FBE70120F9E70120F7E700BFFE
:1023F00000100240000042420F4B5B6803F00C02E9
:10240000082A01D00D487047C3F383420C49885C09
:1024100013F4803F0BD0084B5B68C3F34043094A79
:10242000D35C064A02FB00F0B0FBF3F07047064BAA
:1024300003FB00F0704700BF0010024000127A005A
:10244000888B0008988B000800093D00002800F0E8
:10245000A08070B50D460446524B1B6803F007037D
:102460008B420BD24F4A136823F007030B431360D0
:10247000136803F007038B4240F08D80236813F04C
:10248000020F17D013F0040F04D0474A536843F4E7
:10249000E0635360236813F0080F04D0424A536886
:1024A00043F460535360404A536823F0F003A1683B
:1024B0000B435360236813F0010F31D06368012B85
:1024C00020D0022B25D0384A126812F0020F64D0B7
:1024D00035494A6822F0030213434B60FFF756FB6D
:1024E0000646314B5B6803F00C036268B3EB820F66
:1024F00016D0FFF74BFB801B41F288339842F0D98E
:10250000032045E0284A126812F4003FE0D1012080
:102510003EE0254A126812F0007FD9D1012037E051
:10252000204B1B6803F00703AB420AD91D4A13680E
:1025300023F007032B431360136803F00703AB4238
:102540002DD1236813F0040F06D0174A536823F4E3
:10255000E063E1680B435360236813F0080F07D072
:10256000114A536823F46053216943EAC10353605D
:10257000FFF742FF0C4B5B68C3F303130B4AD35CBA
:10258000D8400B4B18600B4B1868FFF7BBFA0020C4
:1025900070BD012070470120FAE70120F8E7012013
:1025A000F6E700BF0020024000100240688B0008E0
:1025B0000000002008000020014B1868704700BF91
:1025C0000000002008B5FFF7F7FF044B5B68C3F37A
:1025D0000223034AD35CD84008BD00BF001002406C
:1025E000788B000808B5FFF7E7FF044B5B68C3F37F
:1025F000C223034AD35CD84008BD00BF001002408C
:10260000788B000870B4036A026A22F00102026249
:102610004668826922F073020C6844EA020523F0DE
:1026200002028B6813430D4CA04209D00B4CA04210
:102630000DD0466085614A684263036270BC704792
:1026400023F00803CA68134323F00403EEE726F4DB
:1026500040764A6932438E691643EAE7002C01400E
:1026600030B4036A026A22F4807202624568C26969
:1026700022F073020C68224323F400738C6843EA4F
:1026800004230F4CA04209D00D4CA0420ED045604F
:10269000C2614A68C263036230BC704723F40063BE
:1026A000CC6843EA042323F48063EDE725F4405526
:1026B0004C6945EA04158C6945EA0415E7E700BF53
:1026C000002C014030B4036A026A22F48052026294
:1026D0004468C26922F4E6420D6842EA052223F406
:1026E00000538D6843EA0533074DA84206D0446085
:1026F000C2614A680264036230BC704724F48044BB
:102700004D6944EA8514F2E7002C014010B4036AD5
:10271000046A24F001040462846924F0F00C4CEA99
:10272000021223F00A030B438261036210BC70475C
:1027300010B4036A046A24F010040462846924F467
:10274000704C4CEA023223F0A00343EA0113826189
:10275000036210BC7047836823F070030B4343F09F
:10276000070383607047000090F83D30DBB2012B17
:1027700027D1022380F83D300268D36843F001037B
:10278000D3600368114A934210D0B3F1804F0DD04B
:10279000A2F59432934209D002F58062934205D0AB
:1027A0001A6842F001021A60002070479A6802F02D
:1027B0000702062A07D01A6842F001021A600020B8
:1027C0007047012070470020704700BF002C014077
:1027D0007047704770477047704710B504460368EC
:1027E0001A6912F0020F11D0DA6812F0020F0DD040
:1027F0006FF002021A610123037703689B6913F0EB
:10280000030F70D0FFF7E6FF0023237723681A69D0
:1028100012F0040F12D0DA6812F0040F0ED06FF02D
:1028200004021A610223237723689B6913F4407F13
:102830005FD02046FFF7CEFF0023237723681A6975
:1028400012F0080F12D0DA6812F0080F0ED06FF0F5
:1028500008021A61042323772368DB6913F0030F4E
:102860004ED02046FFF7B6FF0023237723681A696E
:1028700012F0100F12D0DA6812F0100F0ED06FF0B5
:1028800010021A61082323772368DB6913F4407F61
:102890003DD02046FFF79EFF0023237723681A6967
:1028A00012F0010F03D0DA6812F0010F36D123685D
:1028B0001A6912F0800F03D0DA6812F0800F34D159
:1028C00023681A6912F0400F03D0DA6812F0400F43
:1028D00032D123681A6912F0200F03D0DA6812F09F
:1028E000200F30D110BDFFF774FF2046FFF773FFB4
:1028F0008AE72046FFF76DFF2046FFF76CFF9BE756
:102900002046FFF766FF2046FFF765FFACE720464D
:10291000FFF75FFF2046FFF75EFFBDE76FF00102A4
:102920001A612046FEF7D6FEC1E76FF080021A61F9
:10293000204600F080FAC3E76FF040021A6120469B
:10294000FFF74AFFC5E76FF020021A61204600F04A
:1029500071FAC7E703681B4A90420AD0B0F1804F72
:1029600007D0A2F59432904203D002F580629042E3
:1029700003D123F070034A681343124A90420AD0ED
:10298000B0F1804F07D0A2F59432904203D002F507
:102990008062904203D123F44073CA68134323F04A
:1029A00080034A69134303608B68C3620B688362C8
:1029B000044B984202D00123436170470B690363C3
:1029C000F9E700BF002C014040B310B5044690F871
:1029D0003D30F3B1022384F83D30214651F8040B19
:1029E000FFF7B8FF012384F8463084F83E3084F8BE
:1029F0003F3084F8403084F8413084F8423084F825
:102A0000433084F8443084F8453084F83D30002069
:102A100010BD80F83C30FEF7C9FEDBE701207047AF
:102A200040B310B5044690F83D30F3B1022384F86A
:102A30003D30214651F8040BFFF78CFF012384F849
:102A4000463084F83E3084F83F3084F8403084F8D3
:102A5000413084F8423084F8433084F8443084F8BC
:102A6000453084F83D30002010BD80F83C30FFF741
:102A7000AFFEDBE70120704730B4036A026A22F040
:102A8000100202624468826922F4E6420D6842EA5A
:102A9000052223F020038D6843EA05130E4DA8425A
:102AA00009D00D4DA8420ED0446082614A6882630D
:102AB000036230BC704723F08003CD6843EA0513FE
:102AC00023F04003EDE724F440644D6944EA8504B3
:102AD0008D6944EA8504E7E7002C014038B590F899
:102AE0003C30012B66D004460D46012380F83C3073
:102AF0000C2A5AD8DFE802F0075959591B5959597D
:102B00003059595944000068FFF77CFD22689369E9
:102B100043F0080393612268936923F004039361EF
:102B20002268936929690B43936100203EE00068A5
:102B3000FFF7A2FF2268936943F400639361226860
:102B4000936923F48063936122689369296943EA56
:102B500001239361002029E00068FFF781FD2268CE
:102B6000D36943F00803D3612268D36923F00403D7
:102B7000D3612268D36929690B43D361002015E032
:102B80000068FFF79FFD2268D36943F40063D361B7
:102B90002268D36923F48063D3612268D3692969E9
:102BA00043EA0123D361002000E00120002384F8E0
:102BB0003C3038BD0220FCE710B4846824F47F4C1C
:102BC00042EA03220A4342EA0C02826010BC7047C8
:102BD00090F83C30012B78D010B50446012380F8E2
:102BE0003C30022380F83D300268936823F47F4331
:102BF00023F0770393600B68602B4CD029D8402BCF
:102C000054D00CD9502B22D1CA6849680068FFF70C
:102C10007DFD50212068FFF79EFD002005E0202B60
:102C20000DD009D9302B0AD00120012384F83D3082
:102C3000002384F83C3010BD0BB1102B05D1194690
:102C40002068FFF788FD0020EFE70120EDE7012075
:102C5000EBE7B3F5805F34D0B3F5005F0CD1CB6800
:102C60004A6889680068FFF7A7FF2268936843F401
:102C7000804393600020D8E7702B24D1CB684A684A
:102C800089680068FFF798FF2268936843F077032C
:102C900093600020C9E7CA6849680068FFF748FDEB
:102CA00060212068FFF757FD0020BEE7CA68496829
:102CB0000068FFF72BFD40212068FFF74CFD002046
:102CC000B3E70020B1E70120AFE70220704701F031
:102CD0001F01012303FA01FC036A23EA0C030362C8
:102CE000036A02FA01F10B430362704710B5044610
:102CF000084651BB94F83E30DBB2013B18BF0123BC
:102D0000002B5BD1002839D1022384F83E30012208
:102D100001462068FFF7DBFF23682A4A93423DD033
:102D20002368284A93423ED0B3F1804F3BD0A2F5AE
:102D30009432934237D002F58062934233D01A68BE
:102D400042F001021A60002039E0042908D0082965
:102D50000DD094F84130DBB2013B18BF0123CFE71F
:102D600094F83F30DBB2013B18BF0123C8E794F869
:102D70004030DBB2013B18BF0123C1E7042805D076
:102D8000082807D0022384F84130C0E7022384F8E2
:102D90003F30BCE7022384F84030B8E75A6C42F475
:102DA00000425A64BCE79A6802F00702062A07D07C
:102DB0001A6842F001021A60002000E0012010BDF4
:102DC0000020FCE7002C014090F83C30012B2CD077
:102DD00010B4012380F83C30022380F83D300368B2
:102DE0005A689C6822F0700C0A6842EA0C025A6029
:102DF00003680F4A93420AD0B3F1804F07D0A2F57F
:102E00009432934203D002F58062934204D124F0BD
:102E100080044A6814439C60012380F83D300023FD
:102E200080F83C30184610BC70470220704700BF45
:102E3000002C014070477047026802F10C0353E810
:102E4000003F23F490730C3242E800310029F3D1A3
:102E5000026802F1140353E8003F23F00103143227
:102E600042E800310029F3D1036B012B05D0202368
:102E700080F84230002303637047026802F10C03BC
:102E800053E8003F23F010030C3242E800310029E0
:102E9000F3D1ECE790F84130DBB2212B01D00220D6
:102EA00070478368B3F5805F17D0036A5A1C0262CB
:102EB0001A7803685A60C38C9BB2013B9BB2C384EF
:102EC0004BB90268D36823F08003D3600268D368EB
:102ED00043F04003D360002070470369002BE4D126
:102EE000036A1B880268C3F308035360036A023352
:102EF0000362E0E710B504460268136923F4405307
:102F0000C1680B43136183680269134342691A4322
:102F10000168CB6823F4B05323F00C031343CB6058
:102F20000268536923F4407381690B43536102685B
:102F3000134B9A4220D0FFF745FB024602EB820278
:102F400002EB820263689B00B2FBF3F20D48A0FB28
:102F500002314909642303FB11231B013233A0FB17
:102F600003235B0903F0F00202EB011203F00F03ED
:102F7000216813448B6010BDFFF734FB0246DDE788
:102F8000003801401F85EB512DE9F84305460F46F7
:102F900016469946DDF820802C68246837EA040339
:102FA0000CBF4FF0010C4FF0000CB4452DD1B8F11F
:102FB000FF3FF1D0B8F1000F05D0FEF7E7FDA0EB21
:102FC00009004045E8D92A6802F10C0353E8003FA4
:102FD00023F4D0730C3242E800310029F3D12A687F
:102FE00002F1140353E8003F23F00103143242E8D6
:102FF00000310029F3D1202385F8413085F8423093
:10300000002385F84030032000E00020BDE8F8836D
:1030100060B310B5044690F8413013B3242384F80C
:1030200041302268D36823F40053D3602046FFF771
:1030300061FF2268136923F4904313612268536986
:1030400023F02A0353612268D36843F40053D3600A
:1030500000206064202384F8413084F842306063AB
:1030600010BD80F84030FEF7DBFCD7E70120704749
:103070002DE9F04182B01E4690F84130DBB2202BA2
:103080004BD104460D46904600294AD00AB901208A
:1030900044E000234364212380F84130FEF776FDAD
:1030A0000746A4F82480A4F82680A368B3F5805FBF
:1030B00002D04FF000080FE02369FBB14FF0000889
:1030C0000AE038F8023B2268C3F308035360E28C3D
:1030D00092B2013A92B2E284E38C9BB28BB1009639
:1030E0003B46002280212046FFF74EFFD8B9002D35
:1030F000E7D015F8012B23685A60E8E7A8460025B9
:10310000EAE700963B46002240212046FFF73CFFBD
:1031100058B9202384F8413000E0022002B0BDE815
:10312000F0810120FAE70320F8E70320F6E7704773
:1031300008B50168CA6822F04002CA60202280F8FF
:103140004120FFF7F4FF002008BD704708B5406A32
:103150000023C385C384FFF7F8FF08BD704790F8CC
:103160004230DBB2222B69D18368B3F5805F4FD048
:10317000826AB3F5805F04D0002B56D10369002B1F
:1031800053D103685B681370836A01338362C38D14
:103190009BB2013B9BB2C385002B51D100B583B0DC
:1031A0000268D36823F02003D3600268D36823F455
:1031B0008073D3600268536923F0010353612023B5
:1031C00080F8423000234363036B012B33D100238B
:1031D0000363026802F10C0353E8003F23F010037D
:1031E0000C3242E800310029F3D103681A6812F06A
:1031F000100F06D0002201921A6801925B680193B9
:10320000019B818DFFF7AAFF002003B05DF804FB4E
:103210000269002AACD1826A03685B68C3F30803C1
:103220001380836A02338362B1E703685B6803F04B
:103230007F031370A8E7FEF78DFBE5E702207047D8
:103240000020704730B583B0044602681368D06828
:10325000516913F00F0505D113F0200F02D010F0C3
:10326000200F19D12DB111F0010119D110F4907F67
:1032700016D1216B01297DD013F0800F03D010F0FF
:10328000800F40F0188113F0400F03D010F0400F72
:1032900040F0158103B030BD2046FFF760FFF9E72D
:1032A00013F0010F06D010F4807F03D0626C42F05F
:1032B0000102626413F0040F04D019B1626C42F091
:1032C0000202626413F0020F04D019B1626C42F082
:1032D0000402626413F0080F07D010F0200F00D131
:1032E00019B1626C42F008026264626C002AD1D0AB
:1032F00013F0200F02D010F0200F29D123685B6952
:1033000003F04003626C12F0080F00D163B3204653
:10331000FFF792FD23685B6913F0400F20D022680D
:1033200002F1140353E8003F23F04003143242E853
:1033300000310029F3D1E36B73B1634A5A63E06B48
:10334000FEF7CEFC0028A5D0E06B436B9847A1E7C1
:103350002046FFF704FFD1E72046FFF7F6FE99E786
:103360002046FFF7F2FE95E72046FFF7EEFE00232A
:1033700063648FE713F0100F3FF47EAF10F0100F6F
:103380003FF47AAF002301931368019353680193CC
:10339000019B536913F0400F51D0E26B13685B68D7
:1033A0009BB2002B3FF476AFA18D99427FF672AFAE
:1033B000E3859369202B37D0226802F10C0353E890
:1033C000003F23F480730C3242E800310029F3D12E
:1033D000226802F1140353E8003F23F00103143282
:1033E00042E800310029F3D1226802F1140353E8C6
:1033F000003F23F04003143242E800310029F3D1AA
:10340000202384F8423000232363226802F10C0356
:1034100053E8003F23F010030C3242E8003100294A
:10342000F3D1E06BFEF738FC02236363A18DE38DDB
:103430009BB2C91A89B22046FFF790FE2AE7A18DF8
:10344000E38D9BB2C91A89B2E38D9BB2002B3FF486
:1034500021AF00293FF41EAF226802F10C0353E8AC
:10346000003F23F490730C3242E800300028F3D17F
:10347000226802F1140353E8003F23F001031432E1
:1034800042E800300028F3D1202384F842300023A2
:103490002363226802F10C0353E8003F23F010037A
:1034A0000C3242E800300028F3D102236363204647
:1034B000FFF754FEEEE62046FFF7ECFCEAE6204676
:1034C000FFF736FEE6E600BF4D31000881628285D7
:1034D000C28500234364222380F84230036923B16C
:1034E0000268D36843F48073D3600268536943F081
:1034F000010353610268D36843F02003D3600020C6
:10350000704708B590F84230DBB2202B08D149B1A2
:103510000AB9012008BD00230363FFF7D7FFF9E7CD
:103520000220F7E70120F5E70023036043604362D0
:1035300083600361C36043618361C3610362704759
:10354000F8B5044641680068FCF7BAFE0546A0607D
:103550006169FCF7B7FE60611549FDF727F808B10E
:10356000134B636113496069FDF702F808B1114B11
:103570006361A1692846FCF7EBFD06466169E069D5
:10358000FCF7E6FD01463046FCF79CFE0646276A3E
:10359000E1682846FCF794FE01463846FCF7D8FD62
:1035A00001463046FCF78EFE6062E560F8BD00BF64
:1035B00000409C4500409CC5002101F0ADBA00BF11
:1035C000014B1868704700BF0C00002070B50D4E0D
:1035D0000D4D761BB61006D0002455F8043B01347F
:1035E0009847A642F9D1094E094D05F0ABFA761B72
:1035F000B61006D0002455F8043B01349847A64283
:10360000F9D170BDD8900008D8900008E09000086B
:10361000D8900008830730B548D0541E002A3FD008
:103620000346CAB201E0013C3AD303F8012B9D07DF
:10363000F9D1032C2DD9CDB245EA05250F2C45EA49
:10364000054536D9A4F1100222F00F0C03F1200E2B
:10365000E6444FEA121C03F1100242E9045542E924
:10366000025510327245F8D10CF1010214F00C0F22
:1036700003EB021204F00F0C13D0ACF1040323F09F
:1036800003030433134442F8045B9342FBD10CF070
:1036900003042CB1CAB21C4403F8012B9C42FBD199
:1036A00030BD64461346002CF4D1F9E703461446B6
:1036B000BFE71A46A446E0E730B5054689B008469C
:1036C0000C4600F04FF801210223214A049406928F
:1036D000AA6B04AC0590084401940791AC6802936E
:1036E000039022B3636E13F0010FB4F90C309AB259
:1036F00001D1980525D5910406D4626E43F4005398
:1037000022F40052A3816266284601AA214601F0F4
:1037100011FB636E002814BF4FF0FF350A25DA074E
:1037200002D4A3899B0506D5284609B030BD28469A
:1037300001F058FAD6E7A06D02F0C8F8284609B0A3
:1037400030BDA06D02F0C0F8B4F90C309AB2D2E7E7
:10375000A08B0008024B01461868FFF7ADBF00BF01
:103760000C00002020F0030110F00300C0F1000065
:1037700051F8043B00F1040C4FEACC0C6FF000024E
:103780001CBF22FA0CF213434FF0010C4CEA0C2C34
:103790004CEA0C4CA3EB0C0222EA030212EACC1214
:1037A00004BF51F8043B0430F4D0C2F1000102EA36
:1037B0000102B2FA82F2C2F11F0200EBD20070479E
:1037C0002DE9F04F012B1D4681460F469046ADF284
:1037D0001C4D40F24781012300219C464FF0FF34ED
:1037E0001A4606E019460122A3EB040C8B189D42F1
:1037F00010D908EB0400805C18F803608642F1D30E
:1038000000F081804FF0010C62460C4661448B1839
:103810009D42EED8CDF808C04FF0010C00204FF0CB
:10382000FF366146634606E018460121A3EB060C0D
:1038300043189D420FD908EB010218F803E0925D8E
:103840009645F1D865D04FF0010C614606466044BC
:1038500043189D42EFD8013604F1010BB34502D85D
:10386000B346CDF808C005AB0DF2144243F8045F2F
:103870009342FBD1002D00F0FA806C1E06AE08F1D9
:10388000FF3208EB0400019612F8011FD3432B44CA
:103890004344904246F82130F6D1029E5A464046B3
:1038A00008EB060102F01EFB002840F083800BF1BC
:1038B000FF3305938246AB1B0646039309EB060EC6
:1038C0001EF80430019A52F8233043B3BAF1000FC6
:1038D00004D0029A9342039A38BF13464FF0000A6D
:1038E0001E447B1BB342E9D209EB070045F400619B
:1038F00003F0C0FB07447B1BB342DFD200200DF274
:103900001C4DBDE8F08F94450ABF0122013261448D
:103910006CE761450ABF40180131012188E7D345B2
:103920005B4638BF5346A34214D2591E9A194144EC
:103930004A4402E00133A3420CD212F8010B11F801
:1039400001CF8445F6D0CBF1010216444FF0000AB6
:103950001E44C6E7D345059B7DD90BEB06024A44BE
:1039600008EB0B01CDF810B002E0534516D003462A
:1039700012F8010D11F801CD03F1010B844503F19B
:10398000FF30F2D05B46DDF810B00AF1010A9A452B
:103990000BD8029BDDF80CA01E44A2E753460AF1A7
:1039A000010A9A45DDF810B0F3D970460DF21C4DAE
:1039B000BDE8F08FA5EB0B035B4538BF5B460026E7
:1039C0000BF1FF3202920133CBF10102039245F475
:1039D000006A049309EB060E1EF80430019A52F8AF
:1039E00023306BB11E447B1B9E42F3D909EB0700C9
:1039F000514603F03FFB07447B1B9E42EAD97DE71B
:103A0000A34513D202990BEB06025B464A4441449C
:103A100002E00133A34209D212F8010B11F801CFE1
:103A20008445F6D0039A16441E44DCE7BBF1000F30
:103A300013D00BEB0601494408EB0B0202E0013BFB
:103A400043450AD0134611F8010D12F801CD844503
:103A5000F5D0049BC6E75B4697E770460DF21C4D18
:103A6000BDE8F08F01234FF0000B0293FBE606AB9D
:103A70004FF0FF34019310E72DE9F0410D4609782E
:103A8000044690B0002953D06A78002A00F0838061
:103A9000AB78002B50D0E878002800F083802B7999
:103AA000002B57D02846FFF75DFE0646204646F419
:103AB000007103F0DFFA86425CD8FE2E00F28780A8
:103AC000801B271840226846711CFFF7A3FD7EB1BA
:103AD0006A1E5FFA86FC901912F8013F03F03F035B
:103AE0004033A91A6B446144824203F8401CF3D16D
:103AF000013CA35D03F03F0340336B4413F8400CDB
:103B00000444A74203D23AE04444A74237D314F80E
:103B100006C020460CF03F0C0CF140030DEB030CEB
:103B2000324629461CF8408C02F0DCF90028EBD123
:103B3000204610B0BDE8F081007842EA014200E082
:103B40000C4640EA0343611CA0B19A426078F7D169
:103B5000013CEDE722786AB1296809BA01E099428F
:103B60001ED0204642EA032314F8012F002AF6D182
:103B7000994215D00024204610B0BDE8F081BB5D0D
:103B8000B819002BF6D04FF4006103F073FA074424
:103B9000BC42ADD9EEE710B0BDE8F04103F0C6B9C4
:103BA000C41EC5E7120442EA016242EA0323014649
:103BB000207800E02C4640EA0102651C1102002832
:103BC000D8D0B3EB022F6078F4D1023CB0E70146C5
:103BD00033462A46204610B0BDE8F041FFF7F0BD5D
:103BE0002DE9F04F002582469748A1B0006888462D
:103BF00007921C4608901C95FFF7B4FD00218346F0
:103C000000204246CDE90401CDF86C80174612F839
:103C1000013B2D2B2FD8DFE813F0A0002E002E0043
:103C20002E002E002E002E002E002E00AD00AD0026
:103C3000AD00AD00AD002E002E002E002E002E0097
:103C40002E002E002E002E002E002E002E002E0004
:103C50002E002E002E002E002E00AD002E002E0075
:103C60002E002E002E002E002E002E002E002E00E4
:103C700002042E00F80300220992302B7CD000228F
:103C80000B922F2B1C4640F229854FF00009384635
:103C90004E464D4612E00130082D1B90C8BF09EB7F
:103CA00089090478C6BF03EB4903A3F13009A2F1E7
:103CB00030062F2C234605F101056EDD06EB86024A
:103CC000392C03EB4202E6DD5A46089903F094F9D9
:103CD000002835D11B9B1A465B441B9312F80B40FE
:103CE000002D40F0A885302C40F06085C3F1010222
:103CF000981801331B931C78302CF9D0A4F13103B0
:103D0000082B00F23583A4F1300E1B9C0023012503
:103D1000274600F1010B0A93002006EB86060EEB06
:103D20004606631C1B936478A4F13001092900F254
:103D3000E9828E460130002940F0AF841B9CF0E7F9
:103D40000020652C834684460A9501D0452C30D14D
:103D5000002D7ED10B9B03437AD14FF0000B079BC4
:103D6000D94613B1079BC3F800805846494621B095
:103D7000BDE8F08F1B9249E77B7803F0DF03582BF7
:103D800000F06D8401371B973B78302BFAD0002B65
:103D900000F0CE8001220B9273E75A46089903F097
:103DA0002BF9002800F0D7800A954FF0000B5846F9
:103DB000DC4600230C93002D00F096800A9A3046D2
:103DC0001346002A08BF2B460A93FCF7B1FD0246B2
:103DD0000B46DDF830C0102D2C46ACEB0B0CA8BF09
:103DE0001024092DCDE90423CDF82CC014DD174B88
:103DF00003EBC40353E91223FCF714FE02464846C2
:103E000090468946FCF794FD02460B4640464946DB
:103E1000FCF752FCCDE904010F2D00F3A5800B9BAC
:103E2000002B00F00F840B9B40F38A83162B40F38A
:103E3000F4840B9AC5F12503934280F207850B9B0E
:103E40002C1B1C4496E000BFA88D0008688E00085B
:103E50000025DDF86C8008F101031B9398F8014000
:103E60002B2C00F082822D2C00F01B824FF0000ED4
:103E7000A4F13003092B00F20F82302C05D11B9BDB
:103E800001331B931C78302CFAD0A4F13103082B9A
:103E90008FD81B9AA4F13001531C1B9354780892BD
:103EA0002F2C09DC00F029BC1C4601331B936478DD
:103EB000A2F130012F2C05DD01EB8102392C04EB3E
:103EC0004202F1DD089A9B1A082B40F3168444F64F
:103ED0001F630C93BEF1000F3FF46DAF0C9B5B4270
:103EE0000C93002D7FF46AAF0B9B034320D1BCF1F0
:103EF000000F7FF432AF692C00F01B8400F339838C
:103F0000492C00F016844E2C7FF427AFAA491BA839
:103F100001F0E0FB00283FF420AF1B9B1B78282B0F
:103F200000F07385A54802F09FFF8346894602E0B2
:103F30004FF0000BD946079A0AB11B9B1360099BEF
:103F4000002B3FF412AF09F1004399465846494609
:103F500021B0BDE8F08F1B9B0A9503EB0B021B926F
:103F600013F80B408346DFE60B9B2C1B1C44002CF4
:103F700040F3048314F00F000AD0DDE904239049D4
:103F800001EBC001D1E90001FCF74CFDCDE90401D2
:103F900034F00F0340F08682002308932B46394605
:103FA00050460A9A009602F0DBF81390002800F0C1
:103FB0004E830C9BABEB03010B9B002BB4BF0A465B
:103FC00000220E9200229346904623EAE373129356
:103FD000139C5046616802F041F80746002800F043
:103FE0004081226904F10C01023292000C30FCF78E
:103FF000E7FADDE904010C4611911EA901911DA902
:1040000002460A9023465046009102F04DFC1C9057
:10401000002800F016810121504602F047F9804641
:10402000002800F01E811D9B002BC0F20D810E9A0E
:10403000129D9E18089A1E9C9B1A2344614A013BBC
:104040009342C4F1360480F2AE80D21A1F2A4FF098
:104050000109A4EB020400F31981002309FA02F913
:104060000C93089B25443444A6421D443346A8BF04
:104070002346AB42A8BF2B46002B02DDE41AED1A03
:10408000F61A0E9B002B00F3BC80002C00F3D080AE
:104090000B9B002B00F3DC80002D00F3ED80002E45
:1040A00008DD41463246504602F038FA8046002884
:1040B00000F0D7803A4650461C9902F0C5FA834674
:1040C000002800F0CE800026C3684146C6600F93EA
:1040D00002F09AFAB042C0F2678400F0CE83414603
:1040E000584602F043FC00224FF0804304460D4640
:1040F000FCF714FF00286DD00F9B002B00F0DD8033
:1041000000223546059B304C10932F4BCDE90C23F4
:104110002E4E109A2E4B02EA0609994500F0F880BF
:10412000089B93B1B9F1D46F0FD821A3D3E9002331
:1041300028462146FCF7F2FE002840F084810D9BC2
:1041400003F1D663A3EB09030D93119E0A98314640
:10415000DDE90C23CDE9042302F01CFB02460B46EB
:10416000DDE90401FCF75EFC33460A9AFCF7A4FA89
:104170000E46CDE90401089B23B9144B3340994501
:1041800000F0FF8050461C9901F08EFF39465046E2
:1041900001F08AFF4146504601F086FF59465046DD
:1041A00001F082FF14E700234FF001090C9358E758
:1041B0000000C0FFFFFFDF41B08B0008488F000800
:1041C000688E000802FCFFFF0000F03F0000F07F57
:1041D0000000E07F204629460022AB4BFCF722FC82
:1041E0000F9B024605460C46002B62D101F10043AD
:1041F00014901593059B1093DDE91423CDE90C234E
:1042000086E741461A46504602F02CF9804640B3F4
:1042100001461C9A504602F077F810B30F901C9993
:10422000504601F041FF0F9B002C1C937FF730AFED
:10423000224650461C9902F071F91C9000287FF428
:1042400027AF5E460B970FE0129A0E9ED51AF1E645
:1042500039465046129A02F005F9074600287FF4C5
:104260001BAF5E460B971C9822234FF0000BDFF824
:104270001C92CAF80030B3E039462A46504602F094
:104280004DF9074600287FF40AAFEAE7804AD31ABF
:1042900009FA03F30C93E4E60023CDF86C800C9349
:1042A00089E54FF0010E08F102031B9398F80240D4
:1042B000DEE50B46CDE914239CE7DDE90412002975
:1042C00040F0B080C2F313031092002B40F0B08096
:1042D0000022204629466F4BFCF716FE002840F0CE
:1042E000AE8220462946684B0022FCF79BFB054620
:1042F0000C4601F1004318901993DDE91823CDE92C
:104300000C2305E7652C4FF0010C3FF4A2AD1DE531
:10431000A2F154730593DDE90423DDE90C01CDE935
:10432000040110461946CDE90C2302F033FA024687
:104330000B46DDE90401FCF775FBDDE90C23FCF716
:10434000BBF9554A0B46CDE904013140914276D97B
:10435000119A524B9A4202D10A9B013381D04FF0FD
:10436000FF334E4ACDE904320CE74FF0000E9AE7D6
:10437000652C00F0F780452C00F0F4804FF0010C24
:10438000B2E528462146FCF79BFEFCF71DFB0B46D9
:10439000024621462846FCF78DF90F9C049DC6F382
:1043A000130644EA050C5CEA060304460D4600F0D9
:1043B000BE8031A3D3E90023FCF7A6FD48B930A3A2
:1043C000D3E9002320462946FCF7BCFD00283FF432
:1043D000D9AEDDE904345E46A1469B461C980B9796
:1043E0000146504601F060FE50460B9901F05CFE1C
:1043F0004146504601F058FE5046139901F054FED4
:104400003146504601F050FE95E5012309937A1C90
:104410001B927B78002B3FF4A0AC17462DE40023C1
:104420000993F4E7DDE90412012900F06E8110928E
:1044300000221B4B0025CDE90C23164C68E603F146
:104440005476059697E621462846FCF79BFD012801
:1044500038BF0120FCF76CFA0F9B024605460C465C
:10446000002B40F0628101F1004316901793DDE9C3
:104470001623CDE90C2362E69535A094FFFFDF3FBC
:1044800035E5AF350000E03F0000E03F0000F07F81
:10449000E2FBFFFF0000F03FFFFF9F7CFFFFEF7F8D
:1044A0000000F0BFB3F59A7F00F3D180102B4FEAE4
:1044B000231440F3C082DDE904010023AC4A99468D
:1044C0009046089214F0010F09F101094FEA6404C3
:1044D00004D0D8E90023FCF7A5FA0123012C08F148
:1044E0000808EFD10BB1CDE90401089B03EBC90922
:1044F000059BD9E90001A3F154730593DDE9042379
:10450000FCF790FA9B4B9C4A0B409342CDE9040187
:1045100000F29D80A2F58012934240F222824FF079
:10452000FF339649CDE904310023089336E58EA385
:10453000D3E90023FCF7E8FC00283FF423AE48E76A
:104540001633FFF611ADDDE904010C9BABEB030A5A
:104550008B4B03EBCA03D3E90023FCF78DFB8346A7
:104560008946E8E400234FF0010C9B460A93FFF7CD
:10457000F1BB6E2C3FF4CAACFFF7EFBB3FF40CADC0
:10458000644214F00F020AD0DDE904017C4B03EB16
:10459000C203D3E90023FCF76FFBCDE9040124112A
:1045A0003FF4FAAC1F2C35DCDDE9040114F01003F4
:1045B00018BF6A2308930023DFF8C881E20704D5F7
:1045C000D8E90023FCF72EFA0123641008F108084B
:1045D000F4D10BB1CDE90401089B93B1DDE90401ED
:1045E000C1F30A52C2F16B03002B0ADD1F2B40F30B
:1045F0004C820020342B049040F352824FF05C73C5
:1046000005930022DDE904010023FCF773FC002878
:104610003FF4C4AC22234FF0000BCAF80030D94657
:1046200089E41E9B04931D9B03F233421F9B23F4DA
:10463000801343EA02530593200742BF059B43F0D2
:1046400000430593DDE904349B46A14673E422232D
:104650004FF0000BDFF81C91CAF800306BE4099BA7
:10466000029401931CAB00935046474A1DAB1BA913
:1046700000F04EFD10F0070504463FF459AC062D3E
:1046800040F097804FF0000B079BD9460137002B75
:104690003FF46BAB1F60FFF768BB6B1C01281A4629
:1046A0001B9C834415D0284400F1FF3C03E04600E6
:1046B0009C450DD001332A46082A1D4606EB86008C
:1046C000F5D9102BDCBF09EB89094FEA4909EFE75F
:1046D0000232082D5EDC1546FFF71EBB5A463846EF
:1046E000089902F089FC002800F08D8000231D4607
:1046F00099461E460A93FFF758BB44F61F6399423A
:10470000A8BF19460C91FFF7E5BBDDE9043410940E
:10471000002C7FF48DAE5E460B9722234FF0000BEA
:104720001C98D946CAF800305AE60B46CDE9162344
:104730009DE616491BA800F0CDFF00283FF40DAB05
:104740001B9B1349013B1BA81B9300F0C3FF10B92F
:104750001B9B01331B934FF0000BDFF81890FFF702
:10476000EABB00BFAFF300809535A094FFFFCF3FB9
:10477000408E00080000F07F0000A07CFFFFEF7F6C
:10478000688E0008E08B0008B48B0008A48B00083A
:10479000A88B0008102AD8BF09EB890915464FF0ED
:1047A0000000D8BF01EB4909FFF7BBBA0020FFF7B3
:1047B000A5BA1C9A3AB135211EA802F007F9504655
:1047C0001C9901F071FC013D042D3FF635AF01A3AA
:1047D00053F825F023460008FD470008F747000876
:1047E000E9470008234600084FF0FF336FF000450B
:1047F000CDE9043520E7AF4B05931DE71E9B0493DD
:104800001F9B059318E71B9B06461A465B441B93A8
:10481000814612F80B40FFF766BA0B98A649DDE90E
:10482000042301EBC001D1E90001FCF7FBF883464A
:104830008946FFF780BB83460A95FFF775BA0022C9
:104840009E4B0F9DCDE918239D4C56E59A4CC5F122
:104850000F0504EBC501DDE90423D1E90001FCF7F4
:10486000E1F80B9B5D1B04EBC504D4E90023FCF7C6
:10487000D9F883468946FFF75EBB0F9B5E46CC4660
:104880000B97DDF828B00C9FDDF84490002B6FD01B
:10489000DDE904458B4BC5F3130199422A463CD010
:1048A000002F00F0AB80DDE904231F421C4621D01D
:1048B0000F9B58464946002B00F0C28001F06AFF6A
:1048C000089D02460B467DB1C4F30A54C4F16B0443
:1048D000002C09DD240504F17F53002203F5401369
:1048E000FCF7A0F802460B4658464946FBF7E4FEA3
:1048F00083468946089B73B158464946724B00224D
:10490000FCF790F803460B4308BF222383468946F1
:1049100008BFCAF800301C9862E5089B0499002B78
:1049200000F0BB80634B2B40B3F1D46F00F2B58035
:104930004FF0FF301B0DC3F16B0300FA03F39942F4
:10494000AED1624B9A4200F0E0805A4B134003F51F
:104950008013059300230493DDE904349B46A146AC
:10496000C8E701F15473059300230893FFF716BBC2
:10497000DDE90412C2F313030B43144690D1089BE4
:10498000002B40F0B7804B4B2340A3F580136FEA18
:1049900013536FEA035305934FF0FF330493DDE99C
:1049A00004349B46A146A5E70F9BDDE904120B43A7
:1049B00058465E46DDF84490DDF828B00B9799D153
:1049C000C2F313031446002B94D122F000431B0DB5
:1049D0001B05B3F1D66F8DD9436913B90369012B58
:1049E00088DD31460122504601F098FD41460646D9
:1049F00001F00AFE00287FF77DAFC0E7DDE904344F
:104A00001CEA030F3FF476AF52E731491BA81EAAF8
:104A100000F07AFE05287FF485AA1F9B43F0FF4330
:104A200043F4E00305931E9B0493DDE904349B46A5
:104A3000A146FFF780BA274B4FF00009089354E5D1
:104A400001F0A8FE089D02460B46002D44D0C4F399
:104A50000A54C4F16B04002C09DD240504F17F53D2
:104A60000F9A03F54013FBF7DDFF02460B4658464D
:104A70004946FBF71FFE0022002383468946FCF7C8
:104A800039FA00283FF438AF47E64FF0FF3202FA18
:104A900003F3049A1A400492B3E54FF0FF334EE754
:104AA0004FF0FF33C2F14B0203FA02F202EA0103B4
:104AB0000593A6E50000F07F688E00080000E0BFC7
:104AC0000000E03FFFFF0F0000005039FFFFEF7FC5
:104AD000C88B0008408E000858464946FBF7EAFD9F
:104AE0000022002383468946FCF704FA00283FF49D
:104AF00012AF12E6074B2340B3F1D66F3FF745AF35
:104B0000B3F15C7F3FF7F8AE07E601317FF41DAFEC
:104B1000FFF7A9BB0000F07F2DE9F0410446214FCB
:104B20000A46214B21463868FFF75AF802460B46E1
:104B30000C460546FCF710FA40BB21462846FCF718
:104B400041FA20F00048064618494046FCF78AFA28
:104B5000C8B940461549FBF715FDA0B924F000443B
:104B600028464FF0FF322146114BFCF7F5F938B9D2
:104B700028464FF0FF3221460D4BFCF7CFF910B11C
:104B800022223B681A603046BDE8F081002C0948BB
:104B900004DA02F081F900F10046F4E7BDE8F041E3
:104BA00002F07AB90C00002040040020FFFF7F7F54
:104BB000FFFFEF7F488F0008024B13B1024800F05F
:104BC00005B8704700000000094D000800230146A9
:104BD0001A46184602F0EEBA014900F023BA00BFA7
:104BE0001D7300082DE9F0478246394800F06CFE3D
:104BF000DAF83840002C66D1042303223549DAF86C
:104C00000450CAF83C10DFF8D090DFF8D080344F61
:104C1000344E0AF53B71CAE9B921CAF8E04221468F
:104C2000EB600822C5E90044C5E904446C66AC6049
:104C3000AC6105F15C00FEF7EDFCC5E90759C5E97B
:104C40000987EE6205F1580000F03AFEDAF80850E4
:104C5000254B2146EB600822C5E90044C5E9044420
:104C60006C66AC60AC6105F15C00FEF7D3FCC5E995
:104C70000759C5E90987EE6205F1580000F020FEEA
:104C8000DAF80C50194B2146EB600822C5E90044C4
:104C9000C5E904446C66AC60AC6105F15C00FEF7EC
:104CA000B9FC05F15800C5E90759C5E90A76C5F808
:104CB000248000F005FE01230548CAF83830BDE81D
:104CC000F04700F003BE0248BDE8F04700F0FEBD2B
:104CD0003C0B0020D94B0008A16E0008C56E0008EF
:104CE000056F0008256F000809000100120002008E
:104CF000014800F0E9BD00BF380B0020014800F07A
:104D0000E5BD00BF380B002038B5084B084D5B1BD4
:104D10009C1007D0043B1D44013C55F804399847CA
:104D2000002CF9D1BDE8384003F012BFE490000830
:104D3000E09000089368002B00F0B7802DE9F04F59
:104D4000B1F90C300C4619078046174683B098B26B
:104D500025D523691BB310F002033D682DD04FF019
:104D6000000B5E46DFF8B8A2002E00F08B8056459F
:104D700033465A4628BF53464046E169D4F824C01A
:104D8000E047002840F38780BB6883441B1A361A2B
:104D9000BB60002BE8D1002003B0BDE8F08F2146B6
:104DA000404602F09DF9002840F03681B4F90C30FD
:104DB0003D6898B210F00203D1D110F0010976D10C
:104DC0004E46002E5AD08205D4F808B040F1B58086
:104DD000B3455A4600F2CD8010F4906F00F0CB80BE
:104DE00023682169A3EB010B636903EB430A0AEB18
:104DF000DA7A0BF101034FEA6A0A3344534552460B
:104E000084BF9A465246430540F1EA801146404627
:104E100000F05EFD002800F0F9805A4621690190FB
:104E2000FBF7CEFBA289019B22F4906242F0800244
:104E3000A28103EB0B0023613246AAEB0B03B346BE
:104E4000C4F814A0A3602060B2460026494601922F
:104E500001F07CF8A3682168019AA3EB0B030A44D4
:104E6000A3602260B868D144A0EB0A00B8600028B3
:104E700091D0B4F90C0080B2002EA4D1D5E90096EF
:104E800008359EE7D5E900B608356DE7214640466E
:104E900002F03CFB80B3B4F90C304FF0FF3043F02C
:104EA0004003A38103B0BDE8F08F002070471E4689
:104EB000AA46994618461D4656B3002832D04A469F
:104EC00020682169B24228BF32468842636904D90A
:104ED000A16803EB010B5A4574DC934265DC2A465A
:104EE0004046E169D4F824C0E047B0F1000BD2DDC0
:104EF000B9EB0B09CAD00120BB685D44A3EB0B03DF
:104F0000A6EB0B06BB60002B3FF445AF002ED4D1BF
:104F10000AF1080353F8046C9A4653F8085C083306
:104F2000002EF7D032460A21284600F093FF0028D1
:104F300069D00130A0EB0509C1E7206823699842D8
:104F40001BD86369B34218D86FF0004CB44528BF32
:104F5000B4469CFBF3FC4A4603FB0CF34046E16974
:104F6000D4F824C0E047B0F1000A94DDA6EB0A06AD
:104F700078E7B3463246206866E7B345DA4628BF8D
:104F8000B2464946524600F0E1FFA3682268A3EB0F
:104F90000A035244A3602260002BE7D12146404619
:104FA00002F0B4FA0028E1D075E729469346019251
:104FB00000F0CCFFA368019A9B1AA36023681A44EF
:104FC000226095E729465A4600F0C0FF2368214633
:104FD0005B444046236002F099FA002888D05AE7E3
:104FE000404601F053FD034600287FF422AF4046BF
:104FF000216902F01DFB0C22B4F90C30C8F8002026
:1050000023F0800349E7721C914659E70C22B4F95A
:105010000C30C8F8002040E74FF0FF30BCE600BF7E
:1050200000FCFF7F2DE9F8434FF000090746884652
:1050300000F53876D6E90154013D10D4A389013D2D
:10504000012B08D9B4F90E30013304D0214638467B
:10505000C04749EA00096B1C04F16804EED13668C8
:10506000002EE7D14846BDE8F88300BF2DE9F041A6
:105070000469B4EB611F2FDD00F1140E4E1111F025
:105080001F0C0EEB84050EEB86032BD05EF826205A
:1050900004339D4222FA0CF1CCF1200818D977464E
:1050A0001A6802FA08F20A4347F8042B53F8041B63
:1050B0009D4221FA0CF1F3D8A41BA300053B9B08E9
:1050C00001330EEB83044EF82310C9B1043417E00A
:1050D000744641610029F9D1002303610023436133
:1050E000BDE8F0819D4288BF00F11002F4D953F869
:1050F000041B9D4242F8041FF9D8A41B0EEB840444
:10510000A4EB0E039B1074450361E7D0BDE8F0816A
:105110002DE9F04F0446A948894606688BB0304611
:105120000292079303960594FEF71CFB3346D9F8C9
:1051300000500344A9780246302913F801BC40F01E
:10514000DB816FF00100EB1C401B1D4600EB030AE6
:1051500013F8011B3029F8D0DFF8648218F8013009
:10516000002B00F0F18000273C462B7818F8033024
:105170002E462BB116F8013F18F80330002BF9D159
:1051800030460399019201F037FF019A0090002800
:1051900000F09280002C40F092803378009403F06D
:1051A000DF03502B344600F09480C9F80060002FD4
:1051B00040F0AC80631B013B072B394604DD5B10DC
:1051C000072B01F10101FADC0598049200F046FF7B
:1051D000049A0190002800F06A82019BA54203F125
:1051E0001406069680F0DD810027C2F10103B9465E
:1051F000049311E0202F00F092803946043714F810
:10520000013C544618F80330AC4203F00F0303FA94
:1052100001F349EA030916D914F8013C04F1FF3AF5
:105220005B45E7D1049B5344AB42E3D31846039953
:105230000992089301F0E0FEDDE908320028D9D197
:105240001C46AC42E8D8069B46F8049BF61A019B24
:10525000B6101E61484600F0DDFF029B76011C6817
:10526000301AA04200F3AE80C0F226810027029BD4
:10527000009A9B689342C0F289810299009A4B6818
:1052800093427EDD9D1AAC4200F3BC80CA68022ABC
:1052900000F0BC81032A00F0B481012A00F098815B
:1052A00050250598019900F0FFFE00232846149A26
:1052B00013600BB0BDE8F08F002C00F00B81A41B35
:1052C000A30000933378344603F0DF03502B7FF4C0
:1052D0006CAF63782B2B00F0ED802D2B6AD0002073
:1052E000661C18F803104B1E182B61D87378103900
:1052F00018F80330013623BB00B14942009BC9F8BE
:1053000000600B440093002F3FF454AFBAF1000F3C
:1053100014BF0025062528460BB0BDE8F08F0021FC
:1053200046F8049B0427894669E701EB810103EBFA
:105330004103A3F1100116F8013F18F80330002BC8
:10534000DAD0192BF1DDD7E728460399009201F056
:1053500053FE009A002873D1A95CAC1818F80130EC
:10536000002B6FD03029254605D115F8013F302B91
:10537000FBD018F80330B3FA83F74FF0010A7F0926
:10538000F6E6012557B1029BDB68022B62D0032BA6
:1053900064D0012B00F0858045F010052846149B51
:1053A000019A1A60079B009A1A600BB0BDE8F08F53
:1053B0002646FAE60120A378A61C92E7A88D0008ED
:1053C000A48C0008019D061B3146284601F02EFBE7
:1053D000074678B10127721E0699531151F8231020
:1053E00002F01F0307FA03F30B4203D0BA4200F3A3
:1053F000E2800227009B3146334401980093FFF777
:1054000035FE34E76E1E002F40F0C980002E40F0BC
:10541000CC8001230699721151F8222006F01F0654
:1054200003FA06F629461642019818BF47F002070C
:10543000FFF71CFE029B641B5B6802250093A1E73B
:105440002C46297801F0DF01502900F0BD80C9F811
:1054500000405BE7159BC3F101031593159B002BDF
:105460009AD0019BDDF818801E6900204346B700E2
:1054700008EB860103E0994243F8040C40D99C46AE
:1054800053F8042BB2F1FF3FF5D00132022DCCF8D6
:10549000002000F0C08014F01F0440F0E2802125BD
:1054A0007CE7BA077FF578AF069B1B681F43FB07B5
:1054B000D7D471E700207EE7221ADDE90031059894
:1054C0009B1A009301F02AF8034614330027019039
:1054D0000693CCE6B35CB01818F803100646002912
:1054E0003FF45DAE16F8013F18F803100029F9D11A
:1054F000801B8100009152E64FF0000A02352BE636
:10550000019B9B689E4280F28D8033460121019A67
:105510005818022D02EB8303106159617BD086423B
:10552000B9DA002840F3AA80019A08EB8000536999
:1055300002F1180188424FEA530340F2B280444618
:105540000A6843EAC27344F8043B51F8043B8842BA
:105550004FEA5303F4D8019A821A193A9208013299
:1055600048F8223008EB8202002B40F09E8001991F
:10557000A2EB08039B1042450B6100F08280029B66
:10558000009A9B6801329342009288DA019905984B
:1055900000F08AFD0023149AA3251360BBE60127BF
:1055A00037E74FF00009069E4DE63146019801F0BD
:1055B0003DFA07462DE72846B11E01F037FA0028CC
:1055C0003FF417AF032715E700230127009380E678
:1055D000AC427FF465AE012C08D00198611E01F049
:1055E00025FA00283FF45CAE029B5B680122079914
:1055F00062250B60019B06991A610A60149A136078
:1056000089E6159A002A3FF44BAEEFE7159A002A77
:105610007FF446AEEAE7029B1B68013BA34234D00D
:105620002225BBE6019B05985968013100F016FD63
:105630008046002841D0DDF804900C304946D9F866
:1056400010300C3102339A00FAF7BAFF4946059838
:1056500000F02AFDD8F81030CDF8048008F11408C5
:1056600054E7474457F8040C00F0D4FDC4F120047B
:10567000A042BFF614AF019B186952E70023019ABC
:1056800013610023019A536179E70123621158F8ED
:10569000222004F01F04A34013420CBF2225212521
:1056A0007CE64246C8F800306BB104325FE7024640
:1056B000DE21064B064801F0C3FD02468421034B60
:1056C000034801F0BDFD019A1361DAE7088C000878
:1056D0001C8C000810B58646046809E014F8013FE8
:1056E000A3F1410CBCF1190F98BF2033934208D1AC
:1056F00011F8012B002AF1D101340120CEF800402D
:1057000010BD002010BD00BF2DE9F04F096885B025
:105710004B1111F01F01029002EB8303039140F043
:105720008E801D1F0193002302990198096840F89B
:10573000043C4C1C4978002900F09780A846AC46F0
:105740009A461E46DFF868910EE0202900F28B8011
:10575000B24506DAC44501D2072B5BDD624551D361
:10576000082314F8011FA1B119F801000028ECD09A
:105770000133082B06F101063ADCDCF800100901C0
:1057800000F00F000843CCF8000014F8011F0029B6
:10579000EAD1002E69D0E04501D9072B73DD6245BF
:1057A00051D26346111F53F8040B9D4241F8040F78
:1057B000F9D2A5EB0C0323F00303691C04330CF1AD
:1057C000010C614538BF04230021134443F8041B36
:1057D0009D42FBD2019B53F8043C2BB9AA4248D00E
:1057E00055F8043D002BF9D0052005B0BDE8F08F39
:1057F0006245B6D20023ACF1040CCCF80030194657
:105800000123BDE70023ACF104084CF8043CB24688
:10581000C446A6E7C3F10801890060468B46DCF860
:105820000030C1F1200E416801FA0EF73B430360DE
:1058300021FA0BF340F8043F4045F4D38EE7191DDD
:105840001D4601916FE7039B002BC3D04FF0FF3340
:10585000019C039954F8040CC1F12001CB40034092
:1058600044F8043CB9E7292909D0042005B0BDE873
:10587000F08F012305202B6005B0BDE8F08F029961
:1058800001340C6085E76446C3F108039B00DCF833
:105890000010C3F12007666806FA07F00143216093
:1058A00026FA03F144F8041FA045F4D877E700BFB7
:1058B000A48C0008014B93F8280170474004002095
:1058C000704700BF704700BF704700BF704700BF00
:1058D0002DE9F04F01F10B05162D064683B025D8B2
:1058E000102900F2B88000F0ADFB102518224FF00F
:1058F000020CB54F3A445368A2F108018B4200F004
:10590000B7805A68D96822F003021A449C6830466E
:10591000E1608C60516803F1080441F001015160BD
:1059200000F096FB204603B0BDE8F08F35F0070588
:1059300000F19180A94200F28E8000F083FBB5F562
:10594000FC7FC0F094816B0A00F08C80042B00F285
:105950006A81AB0903F1390C03F138044FEACC003A
:10596000994F384443680838984206D10CE0002922
:1059700080F22681DB68984206D05A6822F0030242
:10598000511B0F29F3DDA4463C69DFF840E2744562
:105990007AD0626822F00302531B0F2B00F376814A
:1059A000002BC7E904EE80F26781B2F5007F80F03A
:1059B00019810121D30852090B4491407A6857F8A4
:1059C00033000A4307EBC3010839A060E1607A6045
:1059D00047F83340C46001214FEAAC03994091423B
:1059E00059D8114206D12CF0030C490011420CF198
:1059F000040CFAD007EBCC0948466446D0F80C807A
:105A0000404508D11CE1002B80F22181D8F80C80A0
:105A1000404500F01581D8F8042022F00302531B02
:105A20000F2BF0DD08EB050145F00105C8F8045027
:105A30003046D8E90264F460A66043F00104C7E987
:105A400004114C60C1E902EE48F8023000F000FB9E
:105A500008F1080402E00C2300243360204603B060
:105A6000BDE8F08F4FF400704FF0400C3F2477E713
:105A7000D3689A4208BF0CF1020C7FF442AF3C6934
:105A8000DFF848E1744584D101217A684FEAAC031C
:105A900099409142A5D9BC68636823F003094D453C
:105AA00003D8A9EB05030F2B7ADCDFF824B1494BAF
:105AB000DBF800201B6801322B4404EB090A00F0DC
:105AC0002F8103F580530F3323F47F6828F00F08EC
:105AD0004146304601F0CEF9411C024600F0EF800D
