:020000040800F2
:1000000000500020F51C0008691700086B17000855
:100010006D1700086F170008711700080000000036
:10002000000000000000000000000000731700083E
:1000300075170008000000007717000879170008FE
:100040003D1D00083D1D00083D1D00083D1D000828
:100050003D1D00083D1D00083D1D00083D1D000818
:100060003D1D00083D1D00083D1D00083D1D000808
:100070003D1D00083D1D00083D1D00083D1D0008F8
:100080003D1D00083D1D00083D1D00083D1D0008E8
:100090003D1D00083D1D00083D1D00083D1D0008D8
:1000A0003D1D00083D1D00083D1D00083D1D0008C8
:1000B0003D1D00083D1D0008811700083D1D00087A
:1000C0003D1D00083D1D00083D1D00083D1D0008A8
:1000D0003D1D000891170008A11700083D1D0008EC
:1000E0003D1D00083D1D00083D1D000800000000EA
:1000F0000000000000000000000000000000000000
:0C01000000000000000000005FF808F1A3
:1001100010B5054C237833B9044B13B10448AFF341
:1001200000800123237010BDBC09002000000000E6
:10013000D0BF000808B5034B1BB103490348AFF318
:10014000008008BD00000000C0090020D0BF0008EA
:100150004FF0FF0C1CEAD0521EBF1CEAD15392EAAA
:100160000C0F93EA0C0F6FD01A4480EA010C400286
:1001700018BF5FEA41211ED04FF0006343EA5010E0
:1001800043EA5111A0FB01310CF00040B1F5000F22
:100190003EBF490041EAD3715B0040EA010062F1D1
:1001A0007F02FD2A1DD8B3F1004F40EBC25008BFBB
:1001B00020F00100704790F0000F0CF0004C08BFD9
:1001C00049024CEA502040EA51207F3AC2BFD2F1A6
:1001D000FF0340EAC250704740F400004FF00003B4
:1001E000013A5DDC12F1190FDCBF00F000407047EE
:1001F000C2F10002410021FA02F1C2F1200200FA2C
:1002000002FC5FEA310040F1000053EA4C0308BFF2
:1002100020EADC70704792F0000F00F0004C02BF43
:10022000400010F4000F013AF9D040EA0C0093F0BE
:10023000000F01F0004C02BF490011F4000F013B18
:10024000F9D041EA0C018FE70CEAD15392EA0C0F86
:1002500018BF93EA0C0F0AD030F0004C18BF31F0F1
:10026000004CD8D180EA010000F00040704790F0C7
:10027000000F17BF90F0004F084691F0000F91F06B
:10028000004F14D092EA0C0F01D142020FD193EA31
:100290000C0F03D14B0218BF084608D180EA0100B9
:1002A00000F0004040F0FE4040F40000704740F095
:1002B000FE4040F44000704781F0004102E000BF82
:1002C00083F0004330B54FEA41044FEA430594EA16
:1002D000050F08BF90EA020F1FBF54EA000C55EA51
:1002E000020C7FEA645C7FEA655C00F0E2804FEA22
:1002F0005454D4EB5555B8BF6D420CDD2C4480EA04
:10030000020281EA030382EA000083EA010180EA33
:10031000020281EA0303362D88BF30BD11F0004F81
:100320004FEA01314FF4801C4CEA113102D04042B7
:1003300061EB410113F0004F4FEA03334CEA1333F2
:1003400002D0524263EB430394EA050F00F0A7800A
:10035000A4F10104D5F1200E0DDB02FA0EFC22FA05
:1003600005F2801841F1000103FA0EF2801843FAF9
:1003700005F359410EE0A5F120050EF1200E012AEA
:1003800003FA0EFC28BF4CF0020C43FA05F3C01828
:1003900051EBE37101F0004507D54FF0000EDCF1A1
:1003A000000C7EEB00006EEB0101B1F5801F1BD34A
:1003B000B1F5001F0CD349085FEA30004FEA3C0C4E
:1003C00004F101044FEA445212F5800F80F09A8044
:1003D000BCF1004F08BF5FEA500C50F1000041EB48
:1003E000045141EA050130BD5FEA4C0C404141EB4C
:1003F0000101013C28BFB1F5801FE9D291F0000F47
:1004000004BF01460020B1FA81F308BF2033A3F1F5
:100410000B03B3F120020CDA0C3208DD02F1140CEC
:10042000C2F10C0201FA0CF021FA02F10CE002F127
:100430001402D8BFC2F1200C01FA02F120FA0CFC20
:10044000DCBF41EA0C019040E41AA2BF01EB045169
:10045000294330BD6FEA04041F3C1CDA0C340EDC67
:1004600004F11404C4F1200220FA04F001FA02F3AA
:1004700040EA030021FA04F345EA030130BDC4F168
:100480000C04C4F1200220FA02F001FA04F340EA5D
:100490000300294630BD21FA04F0294630BD94F00E
:1004A000000F83F4801306BF81F480110134013DF5
:1004B0004EE77FEA645C18BF7FEA655C29D094EA66
:1004C000050F08BF90EA020F05D054EA000C04BFE4
:1004D0001946104630BD91EA030F1EBF00210020CF
:1004E00030BD5FEA545C05D14000494128BF41F06E
:1004F000004130BD14F580043CBF01F5801130BDD2
:1005000001F0004545F0FE4141F470014FF000005C
:1005100030BD7FEA645C1ABF194610467FEA655C0D
:100520001CBF0B46024650EA013406BF52EA0335AF
:1005300091EA030F41F4002130BD00BF90F0000F9D
:1005400004BF0021704730B54FF4806404F13204D9
:100550004FF000054FF0000150E700BF90F0000F92
:1005600004BF0021704730B54FF4806404F13204B9
:1005700010F0004548BF40424FF000013EE700BF89
:1005800042004FEAE2014FEA31014FEA02701FBF19
:1005900012F07F4393F07F4F81F06051704732F04B
:1005A0007F4208BF704793F07F4F04BF41F40021A2
:1005B000704730B54FF4607401F0004521F0004100
:1005C0001CE700BF50EA010208BF704730B54FF08A
:1005D00000050AE050EA010208BF704730B511F08B
:1005E000004502D5404261EB41014FF4806404F1C3
:1005F00032045FEA915C3FF4D8AE4FF003025FEA49
:10060000DC0C18BF03325FEADC0C18BF033202EBCC
:10061000DC02C2F1200300FA03FC20FA02F001FA26
:1006200003FE40EA0E0021FA02F11444BDE600BFC9
:1006300070B54FF0FF0C4CF4E06C1CEA11541DBF78
:100640001CEA135594EA0C0F95EA0C0F00F0DEF843
:100650002C4481EA030621EA4C5123EA4C5350EA28
:10066000013518BF52EA033541F4801143F4801379
:1006700038D0A0FB02CE4FF00005E1FB02E506F00A
:100680000042E0FB03E54FF00006E1FB03569CF05F
:10069000000F18BF4EF0010EA4F1FF04B6F5007F65
:1006A00064F5407404D25FEA4E0E6D4146EB0606D7
:1006B00042EAC62141EA55514FEAC52040EA5E5060
:1006C0004FEACE2EB4F1FD0C88BFBCF5E06F1ED80A
:1006D000BEF1004F08BF5FEA500E50F1000041EB41
:1006E000045170BD06F0004646EA010140EA0200EE
:1006F00081EA0301B4EB5C04C2BFD4EB0C0541EA10
:10070000045170BD41F480114FF0000E013C00F324
:10071000AB8014F1360FDEBF002001F0004170BD48
:10072000C4F10004203C35DA0C341BDC04F1140461
:10073000C4F1200500FA05F320FA04F001FA05F2ED
:1007400040EA020001F0004221F0004110EBD370BA
:1007500021FA04F642EB06015EEA430E08BF20EAE6
:10076000D37070BDC4F10C04C4F1200500FA04F389
:1007700020FA05F001FA04F240EA020001F000411B
:1007800010EBD37041F100015EEA430E08BF20EA8E
:10079000D37070BDC4F1200500FA05F24EEA020ED6
:1007A00020FA04F301FA05F243EA020321FA04F005
:1007B00001F0004121FA04F220EA020000EBD370BC
:1007C0005EEA430E08BF20EAD37070BD94F0000FBC
:1007D0000FD101F00046400041EB010111F4801FF0
:1007E00008BF013CF7D041EA060195F0000F18BFA1
:1007F000704703F00046520043EB030313F4801FDD
:1008000008BF013DF7D043EA0603704794EA0C0F96
:100810000CEA135518BF95EA0C0F0CD050EA4106AC
:1008200018BF52EA4306D1D181EA030101F0004129
:100830004FF0000070BD50EA410606BF1046194651
:1008400052EA430619D094EA0C0F02D150EA01365D
:1008500013D195EA0C0F05D152EA03361CBF10469E
:1008600019460AD181EA030101F0004141F0FE413D
:1008700041F470014FF0000070BD41F0FE4141F4C1
:10088000780170BD70B54FF0FF0C4CF4E06C1CEAC1
:1008900011541DBF1CEA135594EA0C0F95EA0C0F76
:1008A00000F0A7F8A4EB050481EA030E52EA033531
:1008B0004FEA013100F088804FEA03334FF0805552
:1008C00045EA131343EA12634FEA022245EA11157F
:1008D00045EA10654FEA00260EF000419D4208BF30
:1008E000964244F1FD0404F5407402D25B084FEADD
:1008F0003202B61A65EB03055B084FEA32024FF489
:1009000080104FF4002CB6EB020E75EB030E22BFE5
:10091000B61A754640EA0C005B084FEA3202B6EBA5
:10092000020E75EB030E22BFB61A754640EA5C0054
:100930005B084FEA3202B6EB020E75EB030E22BFE4
:10094000B61A754640EA9C005B084FEA3202B6EBE5
:10095000020E75EB030E22BFB61A754640EADC00A4
:1009600055EA060E18D04FEA051545EA16754FEA06
:1009700006164FEAC30343EA52734FEAC2025FEA24
:100980001C1CC0D111F4801F0BD141EA00014FF0B3
:1009900000004FF0004CB6E711F4801F04BF014384
:1009A0000020B4F1FD0C88BFBCF5E06F3FF6AFAEA0
:1009B000B5EB030C04BFB6EB020C5FEA500C50F130
:1009C000000041EB045170BD0EF0004E4EEA1131B3
:1009D00014EB5C04C2BFD4EB0C0541EA045170BDBA
:1009E00041F480114FF0000E013C90E645EA060EFE
:1009F0008DE60CEA135594EA0C0F08BF95EA0C0F2C
:100A00003FF43BAF94EA0C0F0AD150EA01347FF473
:100A100034AF95EA0C0F7FF425AF104619462CE74A
:100A200095EA0C0F06D152EA03353FF4FDAE1046AD
:100A3000194622E750EA410618BF52EA43067FF4FE
:100A4000C5AE50EA41047FF40DAF52EA43057FF48E
:100A5000EBAE12E74FEA4102B2F1E04324BFB3F537
:100A6000001CDCF1FE5C0DD901F0004C4FEAC00225
:100A70004CEA5070B2F1004F40EB830008BF20F009
:100A80000100704711F0804F21D113F13872BCBFC3
:100A900001F00040704741F480114FEA5252C2F118
:100AA0001802C2F1200C10FA0CF320FA02F018BF61
:100AB00040F001004FEAC1234FEAD32303FA0CFCB4
:100AC00040EA0C0023FA02F34FEA4303CCE77FEA43
:100AD000625307D150EA01331EBF4FF0FE4040F48D
:100AE0004000704701F0004040F0FE4040F400003C
:100AF000704700BF80F0004002E000BF81F000417D
:100B000042001FBF5FEA410392EA030F7FEA226CB3
:100B10007FEA236C6AD04FEA1262D2EB1363C1BF43
:100B2000D218414048404140B8BF5B42192B88BFB2
:100B3000704710F0004F40F4000020F07F4018BFD5
:100B4000404211F0004F41F4000121F07F4118BFF5
:100B5000494292EA030F3FD0A2F1010241FA03FC9D
:100B600010EB0C00C3F1200301FA03F100F0004385
:100B700002D5494260EB4000B0F5000F13D3B0F14D
:100B8000807F06D340084FEA310102F10102FE2ABC
:100B900051D2B1F1004F40EBC25008BF20F001002C
:100BA00040EA03007047490040EB0000013A28BFCB
:100BB000B0F5000FEDD2B0FA80FCACF1080CB2EB4E
:100BC0000C0200FA0CF0AABF00EBC25052421843CC
:100BD000BCBFD0401843704792F0000F81F4000171
:100BE00006BF80F400000132013BB5E74FEA410344
:100BF0007FEA226C18BF7FEA236C21D092EA030FB0
:100C000004D092F0000F08BF0846704790EA010F29
:100C10001CBF0020704712F07F4F04D1400028BF56
:100C200040F00040704712F100723CBF00F5000038
:100C3000704700F0004343F0FE4040F4000070476E
:100C40007FEA226216BF08467FEA2363014642021A
:100C500006BF5FEA412390EA010F40F4800070472D
:100C60004FF0000304E000BF10F0004348BF4042D3
:100C70005FEA000C08BF704743F0964301464FF00F
:100C800000001CE050EA010208BF70474FF000036B
:100C90000AE000BF50EA010208BF704711F00043AC
:100CA00002D5404261EB41015FEA010C02BF84467C
:100CB0000146002043F0B64308BFA3F18053A3F5DB
:100CC0000003BCFA8CF2083AA3EBC25310DB01FA22
:100CD00002FC634400FA02FCC2F12002BCF1004FA6
:100CE00020FA02F243EB020008BF20F00100704737
:100CF00002F1200201FA02FCC2F1200250EA4C008B
:100D000021FA02F243EB020008BF20EADC707047D0
:100D10004FF0FF3C06E000BF4FF0010C02E000BFC7
:100D20004FF0010C4DF804CD4FEA40024FEA410369
:100D30007FEA226C18BF7FEA236C11D001B052EA1F
:100D4000530C18BF90EA010F58BFB2EB030088BFE5
:100D5000C81738BF6FEAE17018BF40F00100704754
:100D60007FEA226C02D15FEA402C05D17FEA236C36
:100D7000E4D15FEA412CE1D05DF8040B704700BF7D
:100D8000844608466146FFE70FB5FFF7C9FF002814
:100D900048BF10F1000F0FBD4DF808EDFFF7F4FF4D
:100DA0000CBF012000205DF808FB00BF4DF808EDE6
:100DB000FFF7EAFF34BF012000205DF808FB00BF09
:100DC0004DF808EDFFF7E0FF94BF012000205DF82B
:100DD00008FB00BF4DF808EDFFF7D2FF94BF0120DC
:100DE00000205DF808FB00BF4DF808EDFFF7C8FFD5
:100DF00034BF012000205DF808FB00BF4FEA40022D
:100E0000B2F1FE4F0FD34FF09E03B3EB12620DD938
:100E10004FEA002343F0004310F0004F23FA02F0A2
:100E200018BF404270474FF00000704712F1610F49
:100E300001D1420205D110F0004008BF6FF0004020
:100E400070474FF00000704742000ED2B2F1FE4FE3
:100E50000BD34FF09E03B3EB126209D44FEA002389
:100E600043F0004323FA02F070474FF00000704750
:100E700012F1610F01D1420202D14FF0FF307047F1
:100E80004FF00000704700BF844641EA000313F0B2
:100E9000030349D1403A23D30B6803604B68436096
:100EA0008B688360CB68C3600B6903614B694361E6
:100EB0008B698361CB69C3610B6A03624B6A4362CE
:100EC0008B6A8362CB6AC3620B6B03634B6B4363B6
:100ED0008B6B8363CB6BC36340304031403ADBD2D2
:100EE00030320BD30B6803604B6843608B688360C0
:100EF000CB68C36010301031103AF3D20C3205D3F6
:100F000051F8043B40F8043B043AF9D2043208D0CB
:100F1000D2071CBF11F8013B00F8013B01D30B883D
:100F200003806046704700BF082A13D38B07B1D0F7
:100F300010F00303AED0C3F10403D21ADB071CBFC9
:100F400011F8013B00F8013BA4D331F8023B20F833
:100F5000023B9FE7043AD9D3013A11F8013B00F86C
:100F6000013BF9D20B7803704B7843708B78837018
:100F7000604670474FF0FF3C06E000BF4FF0010CA9
:100F800002E000BF4FF0010C4DF804CD4FEA410CD8
:100F90007FEA6C5C4FEA430C18BF7FEA6C5C1BD0A5
:100FA00001B050EA410C0CBF52EA430C91EA030F26
:100FB00002BF90EA020F0020704710F1000F91EA83
:100FC000030F58BF994208BF90422CBFD8176FEA51
:100FD000E37040F0010070474FEA410C7FEA6C5C1F
:100FE00002D150EA013C07D14FEA430C7FEA6C5C26
:100FF000D6D152EA033CD3D05DF8040B704700BF52
:101000008446104662468C461946634600E000BF9F
:1010100001B5FFF7B7FF002848BF10F1000F01BD71
:101020004DF808EDFFF7F4FF0CBF012000205DF83C
:1010300008FB00BF4DF808EDFFF7EAFF34BF0120C1
:1010400000205DF808FB00BF4DF808EDFFF7E0FF5A
:1010500094BF012000205DF808FB00BF4DF808EDAB
:10106000FFF7CEFF94BF012000205DF808FB00BF12
:101070004DF808EDFFF7C4FF34BF012000205DF8F4
:1010800008FB00BF4FEA410C7FEA6C5C02D150EADA
:10109000013C0AD14FEA430C7FEA6C5C02D152EA70
:1010A000033C02D14FF0000070474FF00100704741
:1010B0004FEA410212F5001215D211D56FF4787380
:1010C000B3EB625212D94FEAC12343F0004343EA23
:1010D000505311F0004F23FA02F018BF40427047FE
:1010E0004FF00000704750EA013005D111F0004088
:1010F00008BF6FF0004070474FF00000704700BF1E
:101100004A0011D212F5001211D20DD56FF4787386
:10111000B3EB62520ED44FEAC12343F0004343EADB
:10112000505323FA02F070474FF00000704750EA26
:10113000013002D14FF0FF3070474FF00000704790
:101140004FEA40024FEA41037FEA226C02D15FEA94
:10115000402C08D17FEA236C02D15FEA412C02D1F6
:101160004FF0000070474FF00100704753B94AB983
:10117000002908BF00281CBF4FF0FF314FF0FF309F
:1011800000F0AEB9ADF1080C6DE904CE00F03EF808
:10119000DDF804E0DDE9022304B0704738B5054608
:1011A0000C460022002328462146FFF743FF28B9BA
:1011B00028462146BDE8384000F00AB8284604F128
:1011C000004100F005F8404261EB410138BD00BF2D
:1011D000D0B500220B4B06460F46FFF729FAFFF762
:1011E0008FFF0446FFF7AAF90022074BFFF720FA0A
:1011F00002460B4630463946FFF762F8FFF780FF9C
:101200002146D0BD0000F03D0000F0412DE9F0473F
:10121000089E0D4604468846002B4DD18A429446CE
:1012200068D9B2FA82F252B101FA02F3C2F1200196
:1012300020FA01F10CFA02FC41EA030894404FEA5B
:101240001C41B8FBF1F71FFA8CFE01FB178807FB66
:101250000EF0230C43EA084398420AD91CEB03031F
:1012600007F1FF3580F01E81984240F21B81023F5A
:1012700063441B1AB3FBF1F001FB103300FB0EFEBD
:10128000A4B244EA0344A6450AD91CEB040400F1C5
:10129000FF3380F00981A64540F20681644402389C
:1012A0000021A4EB0E0440EA07401EB10023D44005
:1012B000C6E90043BDE8F0878B4208D9002E00F054
:1012C000EE800021C6E900050846BDE8F087B3FAC4
:1012D00083F100294AD1AB4202D3824200F2FC8062
:1012E000841A65EB030301209846002EE2D0C6E97C
:1012F0000048DFE702B9FFDEB2FA82F2002A40F0CE
:101300009180A1EB0C0001214FEA1C471FFA8CFED3
:10131000B0FBF7F307FB1300250C45EA00450EFB75
:1013200003F0A84208D91CEB050503F1FF3802D2EF
:10133000A84200F2CE8043462D1AB5FBF7F007FB1A
:1013400010550EFB00FEA4B244EA0544A64508D998
:101350001CEB040400F1FF3502D2A64500F2B68072
:101360002846A4EB0E0440EA03409EE7C1F12007A3
:101370008B4022FA07FC4CEA030C25FA07FA4FEAE5
:101380001C49BAFBF9F820FA07F309FB18AA8D40AB
:101390001FFA8CFE1D4300FA01F308FB0EF02C0C23
:1013A00044EA0A44A04202FA01F20BD91CEB0404FD
:1013B00008F1FF3A80F08880A04240F28580A8F1D1
:1013C00002086444241AB4FBF9F009FB104400FB42
:1013D0000EFEADB245EA0444A64508D91CEB040450
:1013E00000F1FF356CD2A6456AD90238644440EA60
:1013F0000840A0FB0295A4EB0E04AC42C846AE46E2
:1014000056D353D0002E69D0B3EB080264EB0E0420
:1014100022FA01F304FA07F71F43CC40C6E900742F
:10142000002147E70CFA02FCC2F1200125FA01F382
:101430004FEA1C4720FA01F195400D43B3FBF7F149
:1014400007FB11331FFA8CFE280C40EA034001FB16
:101450000EF3834204FA02F408D91CEB000001F1F8
:10146000FF382FD283422DD902396044C01AB0FB15
:10147000F7F307FB1300ADB245EA004503FB0EF09E
:10148000A84208D91CEB050503F1FF3816D2A84283
:1014900014D9023B6544281A43EA014138E7314632
:1014A000304607E72F46E4E61846F9E64B45A9D251
:1014B000B9EB020865EB0C0E0138A3E74346EAE7F7
:1014C000284694E74146D1E7D0467BE7644402389A
:1014D00047E7023B65442FE7084606E73146E9E661
:1014E000704700BFF0B589B00024049405940694B9
:1014F0000794264B9A6942F010029A619A6902F0A9
:1015000010020092009A9A6942F020029A619A6948
:1015100002F020020192019A9A6942F004029A6153
:101520009A6902F004020292029A9A6942F0080251
:101530009A619B6903F008030393039B144F2246AF
:101540004FF40051384600F047FE124D01224FF48F
:101550004071284600F040FE4FF4005304930126EA
:10156000059606940223079304A9384600F022FD4D
:101570004FF44073049311230593069603230793B6
:1015800004A9284600F016FD09B0F0BD0010024085
:1015900000100140000C014000B583B001904FF6EF
:1015A000FF73012201A9034801F080FE019803B0F6
:1015B0005DF804FB900A002072B6FEE700B591B01A
:1015C0002822002106A802F09BFC0023019302932D
:1015D000039304930593012206924FF480330793FB
:1015E0000A9202220D920E934FF4E0130F9306A875
:1015F00000F018FE80B90F2301930221029100230D
:1016000003934FF480620492059301A801F03CF823
:1016100020B911B05DF804FBFFF7CEFFFFF7CCFF58
:1016200080B500F0B3FBFFF7C9FFFFF75BFF00F0E9
:10163000FBF900F04DF900F0A5FA00F0BDFA012227
:101640002A492B4802F07BF82A4801F0ABF92A4CD2
:101650000021204601F068FC0421204601F064FCD2
:1016600002F06DFB012002F0B7FA4FF00048234F63
:10167000234E244D43463A463146284602F0D2FBDB
:10168000214C43463A463146204602F0CBFB1F4BE5
:101690002B601F4B23601F4D00242C606C60AC60DE
:1016A000EC602C611C4B1868FFF7A8FB06461B4B2F
:1016B0001868FFF7A3FB024633461949284602F093
:1016C00071FC0C232A462146204602F01DFB02F045
:1016D000B3F80C4B586A02F047F80B4B586A02F00B
:1016E0007BF80A2000F076FBD5E700BF200B002036
:1016F000D80A0020380A0020F00900203B704E3B39
:10170000CDCC4C3D440B00206C0B002000006B4303
:1017100000007543D8090020880A0020840A0020B0
:10172000E8BF000882B00E4B9A6942F001029A614C
:101730009A6902F001020092009ADA6942F080523E
:10174000DA61DB6903F080530193019B054A53681A
:1017500023F0E06343F00073536002B0704700BFB2
:101760000010024000000140FEE7FEE7FEE7FEE752
:10177000FEE770477047704708B500F019FB08BDD9
:1017800008B5024801F047F908BD00BF380A00203B
:1017900008B5024801F074FE08BD00BF900A0020A1
:1017A00008B5024801F06CFE08BD00BFD80A002051
:1017B0000120704708B502F079FB162303604FF053
:1017C000FF3008BD08B54FF0FF31FFF7F3FFFEE72C
:1017D00070B50C461646002506E0AFF300802146A2
:1017E00001F8010B01350C46B542F6DB304670BD01
:1017F00070B50C461646002504E014F8010BFFF7FF
:10180000CBFE0135B542F8DB304670BD4FF0FF30FE
:1018100070474FF400534B60002070470120704721
:101820000020704710B503460C4A0D490D4800686A
:1018300040B10C4800680344521A934206D8094A42
:10184000136010BD0748084C0460F2E702F02EFB5D
:101850000C2303604FF0FF30F3E700BF005000207F
:1018600000040000EC090020E00B0020704700009D
:101870000268104B9A4200D0704710B50E4C236896
:10188000013323600D4B19680D4B186802F0DEF828
:101890000C4B19680C4B186802F0E4F82368092B0C
:1018A00000DC10BD4FF40051084800F09BFC002202
:1018B0002260F6E700080040800A0020440B002068
:1018C000840A00206C0B0020880A002000100140D0
:1018D00000B587B00023029303930493059300930C
:1018E00001931548154A026041F61F424260836029
:1018F0006322C26003618023836101F083F990B9A0
:101900004FF48053029302A90B4801F07FFA68B9A3
:101910000023009301936946074801F073FB40B927
:1019200007B05DF804FBFFF747FEE9E7FFF744FE69
:10193000EEE7FFF741FEF3E7380A00200008004019
:1019400000B583B00368B3F1804F05D0124A9342CB
:101950000ED003B05DF804FB03F50433DA6942F0FE
:101960000102DA61DB6903F001030093009BF0E7F9
:101970000A4BDA6942F00402DA61DB6903F004031E
:101980000193019B002211461E2000F049FA1E20FF
:1019900000F07EFADDE700BF0008004000100240C2
:1019A00010B586B000230293039304930593036854
:1019B000B3F1804F01D006B010BD03F504339A692E
:1019C00042F004029A619A6902F004020092009ABD
:1019D0009A6942F008029A619B6903F00803019337
:1019E000019B4FF40043029302240394059402A93F
:1019F0000A4800F0DFFA08230293039405940DEBE4
:101A00000301074800F0D6FA064A536823F44073EE
:101A100043F0E06343F480735360CCE70008014077
:101A2000000C01400000014000B58FB000230A9374
:101A30000B930C930D9308930993019302930393D3
:101A4000049305930693079327484FF08042026062
:101A500040F2CF224260836040F2CF72C2600361E5
:101A60008023836101F0CEF858BB4FF480530A9372
:101A70000AA91D4801F0CAF930BB1B4801F0EEF875
:101A800028BB00230893099308A9174801F0BAFA64
:101A900000BB60230193002202920392059201A9E8
:101AA000114801F039F9C0B904220DEB02010E48CA
:101AB00001F032F9A0B90C48FFF772FF0FB05DF8E2
:101AC00004FBFFF779FDD0E7FFF776FDD5E7FFF7D9
:101AD00073FDD6E7FFF770FDDBE7FFF76DFDE3E78A
:101AE000FFF76AFDE7E700BFF009002038B502689C
:101AF0001B4B9A4205D001221A491B4801F01FFED8
:101B000038BD1A4A11784B1CDBB21370154A127893
:101B1000174842540A2AEED105460022C254134BFC
:101B20001A70144902F0BCFB04461349284602F01F
:101B3000B7FB0546002CDED00028DCD0A01C02F04C
:101B4000B1F90E4B1860A81C02F0ACF90C4B1860F0
:101B5000074B00221A605A609A60DA601A61CAE77D
:101B600000440040200B0020D80A00208C0A0020EE
:101B7000240B00200CC0000810C00008840A0020BC
:101B8000880A002008B50A480A4B03604FF4E13385
:101B9000436000238360C36003610C224261836160
:101BA000C36101F053FB00B908BDFFF705FDFBE77A
:101BB000900A00200038014008B50A480A4B03602B
:101BC0004FF4E133436000238360C36003610C2260
:101BD00042618361C36101F039FB00B908BDFFF7C1
:101BE000EBFCFBE7D80A00200044004030B589B088
:101BF000002304930593069307930368374A93429F
:101C000004D0374A934238D009B030BD354B9A6979
:101C100042F480429A619A6902F480420092009AEA
:101C20009A6942F008029A619B6903F008030193E4
:101C3000019B4023049302230593032307932A4D1A
:101C400004A9284600F0B6F98023049300240594E3
:101C5000069404A9284600F0ADF9244A536843F0DD
:101C6000E06343F00403536022462146252000F040
:101C7000D7F8252000F00CF9C6E71A4BDA6942F4D0
:101C80000032DA61DA6902F400320292029A9A6949
:101C900042F004029A619B6903F004030393039BDF
:101CA000042304930223059303230793104D04A9EF
:101CB000284600F07FF90823049300240594069435
:101CC00004A9284600F076F922462146262000F095
:101CD000A7F8262000F0DCF896E700BF00380140A6
:101CE0000044004000100240000C01400000014090
:101CF00000080140FFF7BAFD0B480C490C4A0023CD
:101D000002E0D458C4500433C4188C42F9D3094AB1
:101D1000094C002301E013600432A242FBD302F01D
:101D2000CBF8FFF77DFC704700000020BC090020C5
:101D30004CCE0008BC090020DC0B0020FEE70000B0
:101D400010B504460E4B18784FF47A73B3FBF0F3DA
:101D50000C4A1068B0FBF3F000F0A8F868B90F2C3B
:101D600001D901200AE0002221464FF0FF3000F0A7
:101D700057F8054B1C60002000E0012010BD00BF9B
:101D800004000020000000200800002008B5074AD9
:101D9000136843F010031360032000F02FF80F20A6
:101DA000FFF7CEFFFFF7BEFC002008BD0020024079
:101DB000034A1168034B1B780B441360704700BF44
:101DC000380B002004000020014B1868704700BF4A
:101DD000380B002038B50446FFF7F6FF0546B4F18E
:101DE000FF3F02D0044B1B781C44FFF7EDFF401B64
:101DF000A042FAD338BD00BF04000020074AD368D0
:101E000023F4E0631B041B0C000200F4E0600343B6
:101E100043F0BF6343F40033D360704700ED00E04C
:101E200000B5194BDB68C3F30223C3F1070CBCF107
:101E3000040F28BF4FF0040C03F1040EBEF1060F8F
:101E400018D9033B4FF0FF3E0EFA0CFC21EA0C01BF
:101E500099400EFA03F322EA0303194300280BDB2F
:101E60000901C9B200F1604000F5614080F800133B
:101E70005DF804FB0023E5E700F00F000901C9B29B
:101E8000024B1954F4E700BF00ED00E014ED00E050
:101E9000002807DB00F01F02400901239340024A9B
:101EA00042F82030704700BF00E100E00138B0F197
:101EB000807F0BD24FF0E0235861054AF02182F871
:101EC00023100020986107221A6170470120704793
:101ED00000ED00E090F82130DBB2022B06D00423A5
:101EE0008363002380F82030012070470268136864
:101EF00023F00E0313600268136823F001031360DC
:101F0000036CC16B012202FA03F34B6080F82120BD
:101F1000002380F8203018467047000008B590F87C
:101F20002130DBB2022B03D004238363012008BDE0
:101F30000268136823F00E0313600268136823F02D
:101F4000010313600368194A934214D01432934278
:101F50001FD0143293421ED0143293421ED014323A
:101F600093421ED01432934202D04FF0807203E0AD
:101F70004FF4801200E001220D4B5A60012380F8DB
:101F80002130002380F82030436B6BB1984700204C
:101F9000CDE71022F0E74FF48072EDE74FF4805266
:101FA000EAE74FF48032E7E70020C0E7080002408C
:101FB0000000024070B582B00024A446A6E0804D27
:101FC000AA4210D007D97F4DAA420CD005F5803522
:101FD000AA4208D013E0A5F58015AA4203D005F562
:101FE0007025AA4207D18A68002A58D0012A51D008
:101FF0004361082403E0A5F58015AA42F3D0BEF1A1
:10200000FF0F4ED80646BEF1FF0F4CD84FEA8C02A8
:1020100033680F25954023EA050304FA02F21343BF
:1020200033604B6813F0805F6ED0674B9A6942F063
:1020300001029A619B6903F001030193019B4FEA3E
:102040009C02951C614B53F825600CF003039D0026
:102050000F23AB4026EA03065D4B984229D003F5D7
:102060008063984200F08E8003F58063984200F010
:102070008B8003F58063984219D004231AE0CC6862
:10208000BDE7CC680434BAE7CC680834B7E7CC685D
:102090000C34B4E703610824B1E70024AFE704245B
:1020A000ADE7061DAFE7ACF108029200B0E70323ED
:1020B00000E00023AB4033430232444D45F8223068
:1020C0004B6813F4801F61D0424A936843EA0E03C1
:1020D00093604B6813F4001F5ED03E4AD36843EA16
:1020E0000E03D3604B6813F4003F5BD0394A53684A
:1020F00043EA0E0353604B6813F4803F58D0354ACF
:10210000136843EA0E0313600CF1010C0A6832FAFB
:102110000CF353D0012303FA0CF302EA030E33EA63
:102120000202F1D14A68122A3FF649AF122A3FF65D
:1021300066AF01A555F822F0E71F00087F200008D0
:10214000892000089B200008FF1F0008FF1F0008CF
:10215000FF1F0008FF1F0008FF1F0008FF1F0008E7
:10216000FF1F0008FF1F0008FF1F0008FF1F0008D7
:10217000FF1F0008FF1F0008FF1F00088320000842
:102180008F200008012395E7022393E7114A936803
:1021900023EA0E0393609CE70E4AD36823EA0E03FA
:1021A000D3609FE70B4A536823EA0E035360A2E70C
:1021B000084A136823EA0E031360A5E702B070BD56
:1021C0000000221000003110001002400000014009
:1021D00000080140000401400AB101617047090490
:1021E00001617047C36801EA030221EA030141EA81
:1021F000024101617047000082B0084B1B68084A29
:10220000A2FB03235B0A00FB03F3019300BF019BC6
:102210005A1E0192002BF9D102B070470000002035
:10222000D34D6210002800F0F18170B582B00446F1
:10223000036813F0010F2CD0994B5B6803F00C037B
:10224000042B1DD0964B5B6803F00C03082B12D0B7
:102250006368B3F5803F41D0002B55D103F1804333
:1022600003F504331A6822F480321A601A6822F4E3
:1022700080221A6037E08A4B5B6813F4803FE7D016
:10228000874B1B6813F4003F03D06368002B00F0FA
:10229000BF81236813F0020F75D0814B5B6813F088
:1022A0000C0F5FD07E4B5B6803F00C03082B54D0FF
:1022B0002369002B00F08A807A4B01221A60FFF715
:1022C00083FD0546764B1B6813F0020F75D1FFF7AF
:1022D0007BFD401B0228F5D903209EE1704A13685C
:1022E00043F480331360636843B3FFF76DFD054625
:1022F0006B4B1B6813F4003FCBD1FFF765FD401B10
:102300006428F5D9032088E1B3F5A02F09D0644BE8
:102310001A6822F480321A601A6822F480221A6045
:10232000E1E703F18043A3F53C331A6842F48022CD
:102330001A601A6842F480321A60D4E7FFF744FD4D
:102340000546574B1B6813F4003FA2D0FFF73CFD36
:10235000401B6428F5D903205FE1514B5B6813F4FF
:10236000803FA5D14E4B1B6813F0020F03D02369A9
:10237000012B40F04F814A4A136823F0F80361694A
:1023800043EAC1031360236813F0080F33D0A36935
:10239000002B5CD0434B0122C3F88024FFF714FDCF
:1023A00005463F4B5B6A13F0020F21D1FFF70CFD8E
:1023B000401B0228F5D903202FE1394A136823F086
:1023C000F803616943EAC1031360DCE7354B00227F
:1023D0001A60FFF7F9FC0546314B1B6813F0020F3A
:1023E000D1D0FFF7F1FC401B0228F5D9032014E1FE
:1023F0000120FFF701FF236813F0040F00F096801F
:10240000274BDB6913F0805F34D1254BDA6942F04A
:102410008052DA61DB6903F080530193019B01254F
:10242000214B1B6813F4807F26D0E368012B3DD03D
:10243000002B53D103F1804303F504331A6A22F0D1
:1024400001021A621A6A22F004021A6233E0154B82
:102450000022C3F88024FFF7B7FC0546104B5B6AE7
:1024600013F0020FC7D0FFF7AFFC401B0228F5D9CD
:102470000320D2E00025D3E70B4A136843F48073AE
:102480001360FFF7A1FC0646074B1B6813F4807F1F
:10249000CBD1FFF799FC801B6428F5D90320BCE061
:1024A0000010024000004242007000405F4A136A80
:1024B00043F001031362E36833B3FFF785FC06467C
:1024C0005A4B1B6A13F0020F2FD1FFF77DFC801BC4
:1024D00041F288339842F3D903209EE0052B09D0BE
:1024E000524B1A6A22F001021A621A6A22F004029E
:1024F0001A62E0E74D4B1A6A42F004021A621A6A45
:1025000042F001021A62D6E7FFF75EFC0646474B2F
:102510001B6A13F0020F08D0FFF756FC801B41F234
:1025200088339842F3D9032077E0E5B9E369002BBB
:1025300072D03E4A526802F00C02082A56D0022B92
:1025400017D03B4B00221A66FFF73EFC0446374B80
:102550001B6813F0007F47D0FFF736FC001B0228F2
:10256000F5D9032059E0314AD36923F08053D36170
:10257000DCE72F4B00221A66FFF726FC05462B4BA3
:102580001B6813F0007F06D0FFF71EFC401B0228DB
:10259000F5D9032041E0236AB3F5803F1AD02349DF
:1025A0004B6823F47413226A606A024313434B603E
:1025B0001F4B01221A66FFF707FC04461B4B1B68E2
:1025C00013F0007F0ED1FFF7FFFB001B0228F5D9A7
:1025D000032022E0154A536823F40033A1680B431B
:1025E0005360DCE7002018E0002016E0012B16D035
:1025F0000E4B5B6803F48031226A914211D103F4DF
:102600007013626A93420ED1002006E001207047E9
:10261000012002E0012000E0002002B070BD012096
:10262000FBE70120F9E70120F7E700BF00100240B7
:10263000000042420F4B5B6803F00C02082A01D0F5
:102640000D487047C3F383420C49885C13F4803F04
:102650000BD0084B5B68C3F34043094AD35C064A7E
:1026600002FB00F0B0FBF3F07047064B03FB00F0F9
:10267000704700BF0010024000127A0014C000082A
:1026800024C0000800093D00002800F0A08070B5BB
:102690000D460446524B1B6803F007038B420BD2D6
:1026A0004F4A136823F007030B431360136803F0CA
:1026B00007038B4240F08D80236813F0020F17D080
:1026C00013F0040F04D0474A536843F4E0635360A7
:1026D000236813F0080F04D0424A536843F4605350
:1026E0005360404A536823F0F003A1680B435360E2
:1026F000236813F0010F31D06368012B20D0022B27
:1027000025D0384A126812F0020F64D035494A6861
:1027100022F0030213434B60FFF756FB0646314B92
:102720005B6803F00C036268B3EB820F16D0FFF70F
:102730004BFB801B41F288339842F0D9032045E0DF
:10274000284A126812F4003FE0D101203EE0254AF9
:10275000126812F0007FD9D1012037E0204B1B68AE
:1027600003F00703AB420AD91D4A136823F007039D
:102770002B431360136803F00703AB422DD123688A
:1027800013F0040F06D0174A536823F4E063E1689E
:102790000B435360236813F0080F07D0114A5368A6
:1027A00023F46053216943EAC1035360FFF742FFFA
:1027B0000C4B5B68C3F303130B4AD35CD8400B4B41
:1027C00018600B4B1868FFF7BBFA002070BD0120A2
:1027D00070470120FAE70120F8E70120F6E700BF83
:1027E0000020024000100240F4BF0008000000205A
:1027F00008000020014B1868704700BF000000204F
:1028000008B5FFF7F7FF044B5B68C3F30223034AE5
:10281000D35CD84008BD00BF0010024004C00008CF
:1028200008B5FFF7E7FF044B5B68C3F3C223034A15
:10283000D35CD84008BD00BF0010024004C00008AF
:1028400070B4036A026A22F0010202624668826979
:1028500022F073020C6844EA020523F002028B683E
:1028600013430D4CA04209D00B4CA0420DD0466042
:1028700085614A684263036270BC704723F00803B5
:10288000CA68134323F00403EEE726F440764A694E
:1028900032438E691643EAE7002C014030B4036AE4
:1028A000026A22F4807202624568C26922F07302F1
:1028B0000C68224323F400738C6843EA04230F4C12
:1028C000A04209D00D4CA0420ED04560C2614A68BA
:1028D000C263036230BC704723F40063CC6843EAF0
:1028E000042323F48063EDE725F440554C6945EA61
:1028F00004158C6945EA0415E7E700BF002C014088
:1029000030B4036A026A22F4805202624468C269E7
:1029100022F4E6420D6842EA052223F400538D6852
:1029200043EA0533074DA84206D04460C2614A68B5
:102930000264036230BC704724F480444D6944EA69
:102940008514F2E7002C014010B4036A046A24F0F5
:1029500001040462846924F0F00C4CEA021223F0B2
:102960000A030B438261036210BC704710B4036A10
:10297000046A24F010040462846924F4704C4CEA64
:10298000023223F0A00343EA01138261036210BC08
:102990007047836823F070030B4343F007038360A1
:1029A0007047000090F83D30DBB2012B27D10223A5
:1029B00080F83D300268D36843F00103D3600368B8
:1029C000114A934210D0B3F1804F0DD0A2F594324A
:1029D000934209D002F58062934205D01A6842F012
:1029E00001021A60002070479A6802F00702062A66
:1029F00007D01A6842F001021A60002070470120D7
:102A000070470020704700BF002C0140704770479E
:102A100070477047704710B5044603681A6912F092
:102A2000020F11D0DA6812F0020F0DD06FF002021F
:102A30001A610123037703689B6913F0030F70D0B9
:102A4000FFF7E6FF0023237723681A6912F0040FCB
:102A500012D0DA6812F0040F0ED06FF004021A617F
:102A60000223237723689B6913F4407F5FD02046BD
:102A7000FFF7CEFF0023237723681A6912F0080FAF
:102A800012D0DA6812F0080F0ED06FF008021A6147
:102A9000042323772368DB6913F0030F4ED020460D
:102AA000FFF7B6FF0023237723681A6912F0100F8F
:102AB00012D0DA6812F0100F0ED06FF010021A6107
:102AC000082323772368DB6913F4407F3DD0204639
:102AD000FFF79EFF0023237723681A6912F0010F86
:102AE00003D0DA6812F0010F36D123681A6912F0A8
:102AF000800F03D0DA6812F0800F34D123681A698E
:102B000012F0400F03D0DA6812F0400F32D1236880
:102B10001A6912F0200F03D0DA6812F0200F30D1BA
:102B200010BDFFF774FF2046FFF773FF8AE72046CA
:102B3000FFF76DFF2046FFF76CFF9BE72046FFF78E
:102B400066FF2046FFF765FFACE72046FFF75FFF13
:102B50002046FFF75EFFBDE76FF001021A612046D5
:102B6000FEF786FEC1E76FF080021A61204600F092
:102B700080FAC3E76FF040021A612046FFF74AFF70
:102B8000C5E76FF020021A61204600F071FAC7E72E
:102B900003681B4A90420AD0B0F1804F07D0A2F5DB
:102BA0009432904203D002F58062904203D123F028
:102BB00070034A681343124A90420AD0B0F1804F22
:102BC00007D0A2F59432904203D002F58062904281
:102BD00003D123F44073CA68134323F080034A6986
:102BE000134303608B68C3620B688362044B984293
:102BF00002D00123436170470B690363F9E700BF0B
:102C0000002C014040B310B5044690F83D30F3B1BC
:102C1000022384F83D30214651F8040BFFF7B8FF3A
:102C2000012384F8463084F83E3084F83F3084F83D
:102C3000403084F8413084F8423084F8433084F8DE
:102C4000443084F8453084F83D30002010BD80F8D1
:102C50003C30FEF775FEDBE70120704740B310B54E
:102C6000044690F83D30F3B1022384F83D3021460C
:102C700051F8040BFFF78CFF012384F8463084F8E9
:102C80003E3084F83F3084F8403084F8413084F896
:102C9000423084F8433084F8443084F8453084F876
:102CA0003D30002010BD80F83C30FFF7AFFEDBE781
:102CB0000120704730B4036A026A22F010020262F7
:102CC0004468826922F4E6420D6842EA052223F054
:102CD00020038D6843EA05130E4DA84209D00D4D1F
:102CE000A8420ED0446082614A688263036230BCAD
:102CF000704723F08003CD6843EA051323F04003B7
:102D0000EDE724F440644D6944EA85048D6944EAA2
:102D10008504E7E7002C014038B590F83C30012BE2
:102D200066D004460D46012380F83C300C2A5AD860
:102D3000DFE802F0075959591B5959593059595967
:102D400044000068FFF77CFD2268936943F00803A4
:102D500093612268936923F0040393612268936965
:102D600029690B43936100203EE00068FFF7A2FF52
:102D70002268936943F4006393612268936923F4A2
:102D80008063936122689369296943EA012393610F
:102D9000002029E00068FFF781FD2268D36943F035
:102DA0000803D3612268D36923F00403D361226846
:102DB000D36929690B43D361002015E00068FFF750
:102DC0009FFD2268D36943F40063D3612268D3690D
:102DD00023F48063D3612268D369296943EA01231C
:102DE000D361002000E00120002384F83C3038BD8E
:102DF0000220FCE710B4846824F47F4C42EA0322EA
:102E00000A4342EA0C02826010BC704790F83C30E2
:102E1000012B78D010B50446012380F83C30022302
:102E200080F83D300268936823F47F4323F07703F2
:102E300093600B68602B4CD029D8402B54D00CD910
:102E4000502B22D1CA6849680068FFF77DFD5021E8
:102E50002068FFF79EFD002005E0202B0DD009D94A
:102E6000302B0AD00120012384F83D30002384F860
:102E70003C3010BD0BB1102B05D119462068FFF76F
:102E800088FD0020EFE70120EDE70120EBE7B3F537
:102E9000805F34D0B3F5005F0CD1CB684A68896895
:102EA0000068FFF7A7FF2268936843F480439360AC
:102EB0000020D8E7702B24D1CB684A688968006865
:102EC000FFF798FF2268936843F077039360002030
:102ED000C9E7CA6849680068FFF748FD60212068B3
:102EE000FFF757FD0020BEE7CA6849680068FFF792
:102EF0002BFD40212068FFF74CFD0020B3E70020A8
:102F0000B1E70120AFE70220704701F01F01012364
:102F100003FA01FC036A23EA0C030362036A02FA60
:102F200001F10B430362704710B50446084651BBDC
:102F300094F83E30DBB2013B18BF0123002B5BD17C
:102F4000002839D1022384F83E300122014620684E
:102F5000FFF7DBFF23682A4A93423DD02368284AC3
:102F600093423ED0B3F1804F3BD0A2F594329342CE
:102F700037D002F58062934233D01A6842F00102E2
:102F80001A60002039E0042908D008290DD094F8EF
:102F90004130DBB2013B18BF0123CFE794F83F304B
:102FA000DBB2013B18BF0123C8E794F84030DBB225
:102FB000013B18BF0123C1E7042805D0082807D02A
:102FC000022384F84130C0E7022384F83F30BCE795
:102FD000022384F84030B8E75A6C42F400425A6445
:102FE000BCE79A6802F00702062A07D01A6842F086
:102FF00001021A60002000E0012010BD0020FCE763
:10300000002C014090F83C30012B2CD010B401234F
:1030100080F83C30022380F83D3003685A689C6891
:1030200022F0700C0A6842EA0C025A6003680F4AE8
:1030300093420AD0B3F1804F07D0A2F59432934265
:1030400003D002F58062934204D124F080044A68E0
:1030500014439C60012380F83D30002380F83C300D
:10306000184610BC70470220704700BF002C01407A
:1030700070477047026802F10C0353E8003F23F4E5
:1030800090730C3242E800310029F3D1026802F15A
:10309000140353E8003F23F00103143242E80031E7
:1030A0000029F3D1036B012B05D0202380F8423097
:1030B000002303637047026802F10C0353E8003FEA
:1030C00023F010030C3242E800310029F3D1ECE781
:1030D00090F84130DBB2212B01D002207047836889
:1030E000B3F5805F17D0036A5A1C02621A7803682E
:1030F0005A60C38C9BB2013B9BB2C3844BB902683C
:10310000D36823F08003D3600268D36843F04003A0
:10311000D360002070470369002BE4D1036A1B8849
:103120000268C3F308035360036A02330362E0E7F3
:1031300010B504460268136923F44053C1680B4379
:10314000136183680269134342691A430168CB68BB
:1031500023F4B05323F00C031343CB60026853698C
:1031600023F4407381690B4353610268134B9A4205
:1031700020D0FFF745FB024602EB820202EB8202FF
:1031800063689B00B2FBF3F20D48A0FB02314909D2
:10319000642303FB11231B013233A0FB03235B09D0
:1031A00003F0F00202EB011203F00F032168134455
:1031B0008B6010BDFFF734FB0246DDE700380140AD
:1031C0001F85EB512DE9F84305460F4616469946F3
:1031D000DDF820802C68246837EA04030CBF4FF028
:1031E000010C4FF0000CB4452DD1B8F1FF3FF1D0E8
:1031F000B8F1000F05D0FEF7E7FDA0EB0900404550
:10320000E8D92A6802F10C0353E8003F23F4D07395
:103210000C3242E800310029F3D12A6802F114038C
:1032200053E8003F23F00103143242E80031002943
:10323000F3D1202385F8413085F84230002385F80A
:103240004030032000E00020BDE8F88360B310B5F3
:10325000044690F8413013B3242384F841302268A7
:10326000D36823F40053D3602046FFF761FF226840
:10327000136923F4904313612268536923F02A03EE
:1032800053612268D36843F40053D3600020606424
:10329000202384F8413084F84230606310BD80F808
:1032A0004030FEF7A3FCD7E7012070472DE9F0413D
:1032B00082B01E4690F84130DBB2202B4BD1044641
:1032C0000D46904600294AD00AB9012044E0002367
:1032D0004364212380F84130FEF776FD0746A4F8C9
:1032E0002480A4F82680A368B3F5805F02D04FF055
:1032F00000080FE02369FBB14FF000080AE038F83E
:10330000023B2268C3F308035360E28C92B2013A95
:1033100092B2E284E38C9BB28BB100963B460022D2
:1033200080212046FFF74EFFD8B9002DE7D015F8D1
:10333000012B23685A60E8E7A8460025EAE70096D3
:103340003B46002240212046FFF73CFF58B920238E
:1033500084F8413000E0022002B0BDE8F081012095
:10336000FAE70320F8E70320F6E7704708B501689D
:10337000CA6822F04002CA60202280F84120FFF78C
:10338000F4FF002008BD704708B5406A0023C385DC
:10339000C384FFF7F8FF08BD704790F84230DBB2F6
:1033A000222B69D18368B3F5805F4FD0826AB3F571
:1033B000805F04D0002B56D10369002B53D10368E2
:1033C0005B681370836A01338362C38D9BB2013BD8
:1033D0009BB2C385002B51D100B583B00268D3687E
:1033E00023F02003D3600268D36823F48073D36092
:1033F0000268536923F001035361202380F84230AF
:1034000000234363036B012B33D100230363026862
:1034100002F10C0353E8003F23F010030C3242E8A2
:1034200000310029F3D103681A6812F0100F06D09A
:10343000002201921A6801925B680193019B818DC1
:10344000FFF7AAFF002003B05DF804FB0269002A21
:10345000ACD1826A03685B68C3F308031380836A94
:1034600002338362B1E703685B6803F07F03137084
:10347000A8E7FEF73BFBE5E7022070470020704716
:1034800030B583B0044602681368D068516913F000
:103490000F0505D113F0200F02D010F0200F19D125
:1034A0002DB111F0010119D110F4907F16D1216BCB
:1034B00001297DD013F0800F03D010F0800F40F071
:1034C000188113F0400F03D010F0400F40F0158129
:1034D00003B030BD2046FFF760FFF9E713F0010F9E
:1034E00006D010F4807F03D0626C42F00102626467
:1034F00013F0040F04D019B1626C42F0020262644E
:1035000013F0020F04D019B1626C42F0040262643D
:1035100013F0080F07D010F0200F00D119B1626C22
:1035200042F008026264626C002AD1D013F0200FCE
:1035300002D010F0200F29D123685B6903F040030B
:10354000626C12F0080F00D163B32046FFF792FDC2
:1035500023685B6913F0400F20D0226802F1140346
:1035600053E8003F23F04003143242E800310029C1
:10357000F3D1E36B73B1634A5A63E06BFEF7CEFCA1
:103580000028A5D0E06B436B9847A1E72046FFF7E2
:1035900004FFD1E72046FFF7F6FE99E72046FFF744
:1035A000F2FE95E72046FFF7EEFE002363648FE707
:1035B00013F0100F3FF47EAF10F0100F3FF47AAF0E
:1035C000002301931368019353680193019B53698E
:1035D00013F0400F51D0E26B13685B689BB2002B75
:1035E0003FF476AFA18D99427FF672AFE385936980
:1035F000202B37D0226802F10C0353E8003F23F45C
:1036000080730C3242E800310029F3D1226802F1C4
:10361000140353E8003F23F00103143242E8003161
:103620000029F3D1226802F1140353E8003F23F08C
:103630004003143242E800310029F3D1202384F8FA
:10364000423000232363226802F10C0353E8003F59
:1036500023F010030C3242E800310029F3D1E06B73
:10366000FEF738FC02236363A18DE38D9BB2C91A78
:1036700089B22046FFF790FE2AE7A18DE38D9BB229
:10368000C91A89B2E38D9BB2002B3FF421AF002908
:103690003FF41EAF226802F10C0353E8003F23F40D
:1036A00090730C3242E800300028F3D1226802F116
:1036B000140353E8003F23F00103143242E80030C2
:1036C0000028F3D1202384F84230002323632268AA
:1036D00002F10C0353E8003F23F010030C3242E8E0
:1036E00000300028F3D1022363632046FFF754FE25
:1036F000EEE62046FFF7ECFCEAE62046FFF736FE52
:10370000E6E600BF8933000881628285C285002316
:103710004364222380F84230036923B10268D368EE
:1037200043F48073D3600268536943F0010353612B
:103730000268D36843F02003D3600020704708B5C7
:1037400090F84230DBB2202B08D149B10AB90120F0
:1037500008BD00230363FFF7D7FFF9E70220F7E76F
:103760000120F5E70000000010B51549FDF7C8F984
:10377000FCF706FF0EA3D3E90023FCF759FF002254
:10378000104BFDF77FF80CA3D3E90023FCF750FFA3
:1037900000220D4BFCF796FDFDF75CF90B4B186012
:1037A0000B4B1C68FDF750FB606310BDAFF300804E
:1037B000176CC1166CC1863F00000000003C9F40A2
:1037C0000000BA4200003440000049403C0B002099
:1037D000F00900200000000010B51349FDF790F932
:1037E000FCF7CEFE0CA3D3E90023FCF721FF002257
:1037F0000E4BFDF747F80AA3D3E90023FCF718FFA7
:1038000000220B4BFCF75EFDFDF724F9094B1C6809
:10381000FDF71AFBA06310BD176CC1166CC1863F83
:1038200000000000003C9F400000BE420000344009
:1038300000004940F009002010B57A4B1B68042BAA
:1038400046D8DFE813F005000E0046007E00B60003
:10385000754B764A1A60764B764A1A60714B012294
:103860001A60714B1C6874492046FDF7BDFA20B3FD
:103870004FF07C512046FDF741F96B4B18606C4BC3
:103880001C686E492046FDF791FAD0B14FF07C518B
:103890002046FDF735F9664B18606749624B18689A
:1038A000FDF78EFA88B16549614B1868FDF792FA09
:1038B00058B15C4B02221A600AE05B4B5E4A1A6008
:1038C000DDE75B4B5D4A1A60E7E7564B01221A6061
:1038D00010BD554B1C685A492046FDF767FA20B3C6
:1038E0004FF07C512046FDF70BF94F4B1860504BC1
:1038F0001C6854492046FDF759FAD0B14FF07C516D
:103900002046FDF7FDF84A4B18604D49464B1868B4
:10391000FDF760FA88B14B49454B1868FDF75AFA34
:1039200058B1404B03221A60D2E73F4B444A1A6019
:10393000DDE73F4B434A1A60E7E73A4B02221A6041
:10394000C6E7394B1C6840492046FDF72FFA20B3E3
:103950004FF07C512046FDF7D3F8334B1860344BC1
:103960001C6838492046FDF721FAD0B14FF07C5150
:103970002046FDF7C5F82E4B186033492A4B1868CE
:10398000FDF728FA88B12F49294B1868FDF722FA6C
:1039900058B1244B04221A609AE7234B2A4A1A6032
:1039A000DDE7234B274A1A60E7E71E4B03221A6024
:1039B0008EE71D4B1C681D492046FDF7F7F940B303
:1039C0004FF07C512046FDF79BF8174B1860184BC1
:1039D0001C6818492046FDF707FAF0B14FF07C51FA
:1039E0002046FDF78BF8124B186010490E4B1868F3
:1039F000FDF7F0F900283FF46BAF0E490C4B186847
:103A0000FDF7DEF900283FF463AF064B05221A608C
:103A10005EE7054B054A1A60D9E7054B054A1A606F
:103A2000E3E700BF400B0020440B00200080D4439C
:103A30006C0B002000003442000020420000704265
:103A4000000048420000D7430000D24310B5044CA8
:103A500021606060204600F0E9F9606210BD00BF9F
:103A6000440B002010B5044C21606060204600F03B
:103A7000DDF9606210BD00BF6C0B002010B50D4C6D
:103A800001224FF480712046FEF7A6FB01224FF47D
:103A900000712046FEF7A0FB00224FF40071204683
:103AA000FEF79AFB00224FF480712046FEF794FB4C
:103AB00010BD00BF000C014010B50A4C01224FF4AC
:103AC00080712046FEF788FB00224FF400712046EB
:103AD000FEF782FB01224FF400712046FEF77CFBCB
:103AE00010BD00BF000C014010B5074C01224FF47F
:103AF00080712046FEF770FB00224FF48071204653
:103B0000FEF76AFB10BD00BF000C014070B5044613
:103B100000224FF480711448FEF75EFB002516E08A
:103B200000224FF400711048FEF756FB6400E4B227
:103B30000D4E01224FF480713046FEF74DFB0022FE
:103B40004FF480713046FEF747FB0135EDB2072D8B
:103B500009D814F0800FE3D001224FF4007102481D
:103B6000FEF73AFBE2E770BD000C014010B50446D9
:103B7000FFF784FF7820FFF7C9FFFFF7B5FF0020AC
:103B8000FFF7C4FFFFF7B0FF2046FFF7BFFFFFF7C7
:103B9000ABFFFFF791FF10BD10B50446FFF76EFFB6
:103BA0007820FFF7B3FFFFF79FFF4020FFF7AEFF3E
:103BB000FFF79AFF2046FFF7A9FFFFF795FFFFF7F2
:103BC0007BFF10BD08B519B1C0B2FFF7E5FF08BD16
:103BD000C0B2FFF7CBFFFAE710B5044610B1012CD5
:103BE00009D010BD0021C820FFF7ECFF0021A12063
:103BF000FFF7E8FFF3E70021C020FFF7E3FF002114
:103C0000A020FFF7DFFFECE710B5044608460021CF
:103C1000B030FFF7D7FF2009002140F01000FFF778
:103C2000D1FF002104F00F00FFF7CCFF10BD38B525
:103C300000250AE001210020FFF7C4FF0134E4B2AF
:103C400014F0800FF6D00135EDB2072D0ED800210B
:103C500005F1B000FFF7B6FF00210846FFF7B2FFFD
:103C600000211020FFF7AEFF0024E9E738BD000077
:103C7000F8B507460E46203AD5B210F0800F07D1AE
:103C8000102B09D031463846FFF7BEFF002433E041
:103C90000236F6B20027F3E731463846FFF7B4FFA5
:103CA000002408E004EB05130121154AD05CFFF75E
:103CB00089FF0134E4B2072CF4D9711CC9B238462B
:103CC000FFF7A2FF002409E004EB051308330121EC
:103CD0000B4AD05CFFF776FF0134E4B2072CF3D92E
:103CE0000CE005EB4503074A02EB43030121185D95
:103CF000FFF768FF0134E4B2052CF2D9F8BD00BF2C
:103D000050C2000828C000082DE9F04104460E46C4
:103D100017469846002501E00135EDB27A5D62B1A3
:103D2000434631462046FFF7A3FF0834E4B2782C1F
:103D3000F2D90236F6B20024EEE7BDE8F08108B50C
:103D4000C820FEF747F80021AE20FFF73BFF002117
:103D50000846FFF737FF00211020FFF733FF00214F
:103D60004020FFF72FFF0021B020FFF72BFF00219D
:103D70008120FFF727FF0021FF20FFF723FF00210D
:103D8000A120FFF71FFF0021A620FFF71BFF002146
:103D9000A820FFF717FF00213F20FFF713FF0021A6
:103DA000C820FFF70FFF0021D320FFF70BFF0021F2
:103DB0000846FFF707FF0021D520FFF703FF00218A
:103DC0008020FFF7FFFE0021D820FFF7FBFE002137
:103DD0000520FFF7F7FE0021D920FFF7F3FE0021B1
:103DE000F120FFF7EFFE0021DA20FFF7EBFE0021C4
:103DF0001220FFF7E7FE0021DB20FFF7E3FE0021A2
:103E00003020FFF7DFFE00218D20FFF7DBFE0021D1
:103E10001420FFF7D7FE0021AF20FFF7D3FEFFF7F6
:103E200006FF08BD8161C26103627047F8B50446B0
:103E300041680068FCF762FE0546A0606169FCF716
:103E40005FFE60611549FCF7CFFF08B1134B63615A
:103E500013496069FCF7AAFF08B1114B6361A169BE
:103E60002846FCF775F906466169E069FCF770F9C8
:103E700001463046FCF744FE0646276AE1682846BC
:103E8000FCF73CFE01463846FCF762F90146304635
:103E9000FCF736FE6062E560F8BD00BF00409C455F
:103EA00000409CC5002101F04BBA00BF014B1868CF
:103EB000704700BF0C00002070B50D4E0D4D761BF5
:103EC000B61006D0002455F8043B01349847A642AA
:103ED000F9D1094E094D08F07BF8761BB61006D0D3
:103EE000002455F8043B01349847A642F9D170BD2F
:103EF00040CE000840CE000848CE000840CE000862
:103F0000830730B548D0541E002A3FD00346CAB2BA
:103F100001E0013C3AD303F8012B9D07F9D1032CB2
:103F20002DD9CDB245EA05250F2C45EA054536D9F0
:103F3000A4F1100222F00F0C03F1200EE6444FEA28
:103F4000121C03F1100242E9045542E902551032F5
:103F50007245F8D10CF1010214F00C0F03EB0212C0
:103F600004F00F0C13D0ACF1040323F0030304336B
:103F7000134442F8045B9342FBD10CF003042CB1D0
:103F8000CAB21C4403F8012B9C42FBD130BD6446ED
:103F90001346002CF4D1F9E703461446BFE71A464E
:103FA000A446E0E70EB430B504466FF000459CB07F
:103FB0000B4A1FAB0B49059253F8042B086802A962
:103FC000CDE9013407950495069401F009FA002221
:103FD000029B1A701CB0BDE8304003B0704700BFB0
:103FE0000802FFFF0C0000202DE9F04F012B1D46B9
:103FF00081460F469046ADF21C4D40F247810123A9
:1040000000219C464FF0FF341A4606E01946012273
:10401000A3EB040C8B189D4210D908EB0400805CC4
:1040200018F803608642F1D300F081804FF0010C54
:1040300062460C4661448B189D42EED8CDF808C00C
:104040004FF0010C00204FF0FF366146634606E05A
:1040500018460121A3EB060C43189D420FD908EB2B
:10406000010218F803E0925D9645F1D865D04FF053
:10407000010C61460646604443189D42EFD8013664
:1040800004F1010BB34502D8B346CDF808C005AB27
:104090000DF2144243F8045F9342FBD1002D00F06F
:1040A000FA806C1E06AE08F1FF3208EB04000196A0
:1040B00012F8011FD3432B444344904246F8213069
:1040C000F6D1029E5A46404608EB060104F08CFFEA
:1040D000002840F083800BF1FF3305938246AB1B31
:1040E0000646039309EB060E1EF80430019A52F8B7
:1040F000233043B3BAF1000F04D0029A9342039ADB
:1041000038BF13464FF0000A1E447B1BB342E9D26E
:1041100009EB070045F4006105F018FE07447B1B1E
:10412000B342DFD200200DF21C4DBDE8F08F944564
:104130000ABF0122013261446CE761450ABF4018A1
:104140000131012188E7D3455B4638BF5346A3427E
:1041500014D2591E9A1941444A4402E00133A34241
:104160000CD212F8010B11F801CF8445F6D0CBF137
:10417000010216444FF0000A1E44C6E7D345059BD2
:104180007DD90BEB06024A4408EB0B01CDF810B0C9
:1041900002E0534516D0034612F8010D11F801CD87
:1041A00003F1010B844503F1FF30F2D05B46DDF8EB
:1041B00010B00AF1010A9A450BD8029BDDF80CA059
:1041C0001E44A2E753460AF1010A9A45DDF810B0F1
:1041D000F3D970460DF21C4DBDE8F08FA5EB0B0333
:1041E0005B4538BF5B4600260BF1FF32029201337C
:1041F000CBF10102039245F4006A049309EB060E29
:104200001EF80430019A52F823306BB11E447B1B18
:104210009E42F3D909EB0700514605F097FD07448C
:104220007B1B9E42EAD97DE7A34513D202990BEB93
:1042300006025B464A44414402E00133A34209D2EC
:1042400012F8010B11F801CF8445F6D0039A1644F9
:104250001E44DCE7BBF1000F13D00BEB0601494411
:1042600008EB0B0202E0013B43450AD0134611F86C
:10427000010D12F801CD8445F5D0049BC6E75B46DD
:1042800097E770460DF21C4DBDE8F08F01234FF00B
:10429000000B0293FBE606AB4FF0FF34019310E7EF
:1042A0002DE9F0410D460978044690B0002953D01D
:1042B0006A78002A00F08380AB78002B50D0E87831
:1042C000002800F083802B79002B57D0284605F07A
:1042D0009DFC0646204646F4007105F037FD8642F7
:1042E0005CD8FE2E00F28780801B2718402268468B
:1042F000711CFFF705FE7EB16A1E5FFA86FC9019FD
:1043000012F8013F03F03F034033A91A6B446144A4
:10431000824203F8401CF3D1013CA35D03F03F034C
:1043200040336B4413F8400C0444A74203D23AE0F4
:104330004444A74237D314F806C020460CF03F0C83
:104340000CF140030DEB030C324629461CF8408C5F
:1043500004F04AFE0028EBD1204610B0BDE8F08101
:10436000007842EA014200E00C4640EA0343611C47
:10437000A0B19A426078F7D1013CEDE722786AB1AA
:10438000296809BA01E099421ED0204642EA032377
:1043900014F8012F002AF6D1994215D000242046A6
:1043A00010B0BDE8F081BB5DB819002BF6D04FF41A
:1043B000006105F0CBFC0744BC42ADD9EEE710B07C
:1043C000BDE8F04105F0BCBBC41EC5E7120442EADB
:1043D000016242EA03230146207800E02C4640EACD
:1043E0000102651C11020028D8D0B3EB022F6078BF
:1043F000F4D1023CB0E7014633462A46204610B0CD
:10440000BDE8F041FFF7F0BD2DE9F04F00258246F1
:104410009748A1B00068884607921C4608901C95F2
:1044200005F0F4FB0021834600204246CDE904015B
:10443000CDF86C80174612F8013B2D2B2FD8DFE802
:1044400013F0A0002E002E002E002E002E002E00B5
:104450002E002E00AD00AD00AD00AD00AD002E0071
:104460002E002E002E002E002E002E002E002E00DC
:104470002E002E002E002E002E002E002E002E00CC
:104480002E00AD002E002E002E002E002E002E003D
:104490002E002E002E002E0002042E00F803002213
:1044A0000992302B7CD000220B922F2B1C4640F21D
:1044B00029854FF0000938464E464D4612E001303E
:1044C000082D1B90C8BF09EB89090478C6BF03EB10
:1044D0004903A3F13009A2F130062F2C234605F140
:1044E00001056EDD06EB8602392C03EB4202E6DDA8
:1044F0005A46089905F0B8FB002835D11B9B1A468F
:104500005B441B9312F80B40002D40F0A885302C23
:1045100040F06085C3F10102981801331B931C78A9
:10452000302CF9D0A4F13103082B00F23583A4F12B
:10453000300E1B9C00230125274600F1010B0A9336
:10454000002006EB86060EEB4606631C1B93647880
:10455000A4F13001092900F2E9828E4601300029D8
:1045600040F0AF841B9CF0E70020652C8346844616
:104570000A9501D0452C30D1002D7ED10B9B0343F1
:104580007AD14FF0000B079BD94613B1079BC3F8B4
:1045900000805846494621B0BDE8F08F1B9249E79C
:1045A0007B7803F0DF03582B00F06D8401371B97F5
:1045B0003B78302BFAD0002B00F0CE8001220B92FA
:1045C00073E75A46089905F04FFB002800F0D780A2
:1045D0000A954FF0000B5846DC4600230C93002D43
:1045E00000F096800A9A30461346002A08BF2B46F0
:1045F0000A93FBF7A3FF02460B46DDF830C0102DEF
:104600002C46ACEB0B0CA8BF1024092DCDE90423DC
:10461000CDF82CC014DD174B03EBC40353E9122370
:10462000FCF706F80246484690468946FBF786FFA7
:1046300002460B4640464946FBF744FECDE90401DD
:104640000F2D00F3A5800B9B002B00F00F840B9B1C
:1046500040F38A83162B40F3F4840B9AC5F12503AB
:10466000934280F207850B9B2C1B1C4496E000BFF5
:104670003CCB000800CC00080025DDF86C8008F178
:1046800001031B9398F801402B2C00F082822D2C03
:1046900000F01B824FF0000EA4F13003092B00F252
:1046A0000F82302C05D11B9B01331B931C78302CBF
:1046B000FAD0A4F13103082B8FD81B9AA4F1300152
:1046C000531C1B93547808922F2C09DC00F029BC52
:1046D0001C4601331B936478A2F130012F2C05DDB9
:1046E00001EB8102392C04EB4202F1DD089A9B1A9E
:1046F000082B40F3168444F61F630C93BEF1000FA1
:104700003FF46DAF0C9B5B420C93002D7FF46AAFBE
:104710000B9B034320D1BCF1000F7FF432AF692C17
:1047200000F01B8400F33983492C00F016844E2CD2
:104730007FF427AFAA491BA804F04AF800283FF4E9
:1047400020AF1B9B1B78282B00F07385A54805F034
:10475000DBF98346894602E04FF0000BD946079A01
:104760000AB11B9B1360099B002B3FF412AF09F1A8
:10477000004399465846494621B0BDE8F08F1B9B3F
:104780000A9503EB0B021B9213F80B408346DFE6FE
:104790000B9B2C1B1C44002C40F3048314F00F00D3
:1047A0000AD0DDE90423904901EBC001D1E9000101
:1047B000FBF73EFFCDE9040134F00F0340F08682A1
:1047C000002308932B46394650460A9A009604F077
:1047D000CDFC1390002800F04E830C9BABEB030143
:1047E0000B9B002BB4BF0A4600220E920022934678
:1047F000904623EAE3731293139C5046616804F0D9
:1048000033FC0746002800F04081226904F10C01C6
:10481000023292000C30FCF737FBDDE904010C4654
:1048200011911EA901911DA902460A9023465046E6
:10483000009105F03FF81C90002800F0168101213E
:10484000504604F039FD8046002800F01E811D9B73
:10485000002BC0F20D810E9A129D9E18089A1E9C84
:104860009B1A2344614A013B9342C4F1360480F20F
:10487000AE80D21A1F2A4FF00109A4EB020400F304
:104880001981002309FA02F90C93089B254434444A
:10489000A6421D443346A8BF2346AB42A8BF2B46C1
:1048A000002B02DDE41AED1AF61A0E9B002B00F322
:1048B000BC80002C00F3D0800B9B002B00F3DC802D
:1048C000002D00F3ED80002E08DD414632465046B3
:1048D00004F02AFE8046002800F0D7803A46504671
:1048E0001C9904F0B7FE8346002800F0CE80002615
:1048F000C3684146C6600F9304F08CFEB042C0F21C
:10490000678400F0CE834146584605F035F8002212
:104910004FF0804304460D46FCF796FB00286DD00F
:104920000F9B002B00F0DD8000223546059B304CAC
:1049300010932F4BCDE90C232E4E109A2E4B02EAEA
:104940000609994500F0F880089B93B1B9F1D46F3E
:104950000FD821A3D3E9002328462146FCF774FB96
:10496000002840F084810D9B03F1D663A3EB09037B
:104970000D93119E0A983146DDE90C23CDE90423FD
:1049800004F00EFF02460B46DDE90401FBF750FE82
:1049900033460A9AFBF796FC0E46CDE90401089BC4
:1049A00023B9144B3340994500F0FF8050461C99C1
:1049B00004F080FB3946504604F07CFB41465046EB
:1049C00004F078FB5946504604F074FB14E70023CA
:1049D0004FF001090C9358E70000C0FFFFFFDF41D3
:1049E00050C80008E0CC000800CC000802FCFFFF23
:1049F0000000F03F0000F07F0000E07F20462946E5
:104A00000022AB4BFBF714FE0F9B024605460C46FB
:104A1000002B62D101F1004314901593059B109374
:104A2000DDE91423CDE90C2386E741461A465046BA
:104A300004F01EFD804640B301461C9A504604F027
:104A400069FC10B30F901C99504604F033FB0F9B88
:104A5000002C1C937FF730AF224650461C9904F07F
:104A600063FD1C9000287FF427AF5E460B970FE094
:104A7000129A0E9ED51AF1E639465046129A04F063
:104A8000F7FC074600287FF41BAF5E460B971C9887
:104A900022234FF0000BDFF81C92CAF80030B3E07D
:104AA00039462A46504604F03FFD074600287FF469
:104AB0000AAFEAE7804AD31A09FA03F30C93E4E653
:104AC0000023CDF86C800C9389E54FF0010E08F1BE
:104AD00002031B9398F80240DEE50B46CDE9142350
:104AE0009CE7DDE90412002940F0B080C2F3130313
:104AF0001092002B40F0B0800022204629466F4BD8
:104B0000FCF798FA002840F0AE8220462946684B10
:104B10000022FBF78DFD05460C4601F1004318907D
:104B20001993DDE91823CDE90C2305E7652C4FF037
:104B3000010C3FF4A2AD1DE5A2F154730593DDE92C
:104B40000423DDE90C01CDE9040110461946CDE945
:104B50000C2304F025FE02460B46DDE90401FBF7B9
:104B600067FDDDE90C23FBF7ADFB554A0B46CDE9AC
:104B700004013140914276D9119A524B9A4202D1A6
:104B80000A9B013381D04FF0FF334E4ACDE9043206
:104B90000CE74FF0000E9AE7652C00F0F780452CEB
:104BA00000F0F4804FF0010CB2E528462146FCF7F6
:104BB000F5FAFBF70FFD0B46024621462846FBF7A8
:104BC0007FFB0F9C049DC6F3130644EA050C5CEAC8
:104BD000060304460D4600F0BE8031A3D3E900234E
:104BE000FCF728FA48B930A3D3E900232046294628
:104BF000FCF73EFA00283FF4D9AEDDE904345E4606
:104C0000A1469B461C980B970146504604F052FA69
:104C100050460B9904F04EFA4146504604F04AFAC9
:104C20005046139904F046FA3146504604F042FAD1
:104C300095E5012309937A1C1B927B78002B3FF4A6
:104C4000A0AC17462DE400230993F4E7DDE9041234
:104C5000012900F06E81109200221B4B0025CDE946
:104C60000C23164C68E603F15476059697E6214628
:104C70002846FCF745FA012838BF0120FBF75EFC07
:104C80000F9B024605460C46002B40F0628101F165
:104C9000004316901793DDE91623CDE90C2362E655
:104CA0009535A094FFFFDF3F35E5AF350000E03FCD
:104CB0000000E03F0000F07FE2FBFFFF0000F03F5C
:104CC000FFFF9F7CFFFFEF7F0000F0BFB3F59A7FEF
:104CD00000F3D180102B4FEA231440F3C082DDE9AA
:104CE00004010023AC4A99469046089214F0010F43
:104CF00009F101094FEA640404D0D8E90023FBF765
:104D000097FC0123012C08F10808EFD10BB1CDE984
:104D10000401089B03EBC909059BD9E90001A3F134
:104D200054730593DDE90423FBF782FC9B4B9C4AFB
:104D30000B409342CDE9040100F29D80A2F5801260
:104D4000934240F222824FF0FF339649CDE904317D
:104D50000023089336E58EA3D3E90023FCF76AF914
:104D600000283FF423AE48E71633FFF611ADDDE926
:104D700004010C9BABEB030A8B4B03EBCA03D3E997
:104D80000023FBF77FFD83468946E8E400234FF0CC
:104D9000010C9B460A93FFF7F1BB6E2C3FF4CAACA3
:104DA000FFF7EFBB3FF40CAD644214F00F020AD0E2
:104DB000DDE904017C4B03EBC203D3E90023FBF7DD
:104DC00061FDCDE9040124113FF4FAAC1F2C35DC60
:104DD000DDE9040114F0100318BF6A2308930023CF
:104DE000DFF8C881E20704D5D8E90023FBF720FCEF
:104DF0000123641008F10808F4D10BB1CDE90401D6
:104E0000089B93B1DDE90401C1F30A52C2F16B03BF
:104E1000002B0ADD1F2B40F34C820020342B049022
:104E200040F352824FF05C7305930022DDE90401E8
:104E30000023FCF7F5F800283FF4C4AC22234FF020
:104E4000000BCAF80030D94689E41E9B04931D9BD1
:104E500003F233421F9B23F4801343EA025305936A
:104E6000200742BF059B43F000430593DDE904346E
:104E70009B46A14673E422234FF0000BDFF81C9100
:104E8000CAF800306BE4099B029401931CAB0093B9
:104E90005046474A1DAB1BA903F0B8F910F00705AF
:104EA00004463FF459AC062D40F097804FF0000BBC
:104EB000079BD9460137002B3FF46BAB1F60FFF710
:104EC00068BB6B1C01281A461B9C834415D02844E0
:104ED00000F1FF3C03E046009C450DD001332A461B
:104EE000082A1D4606EB8600F5D9102BDCBF09EB1E
:104EF00089094FEA4909EFE70232082D5EDC1546C1
:104F0000FFF71EBB5A463846089904F0ADFE00284C
:104F100000F08D8000231D4699461E460A93FFF738
:104F200058BB44F61F639942A8BF19460C91FFF77E
:104F3000E5BBDDE904341094002C7FF48DAE5E46B1
:104F40000B9722234FF0000B1C98D946CAF800306B
:104F50005AE60B46CDE916239DE616491BA803F039
:104F600037FC00283FF40DAB1B9B1349013B1BA8EA
:104F70001B9303F02DFC10B91B9B01331B934FF0C7
:104F8000000BDFF81890FFF7EABB00BFAFF300801B
:104F90009535A094FFFFCF3FD8CB00080000F07FED
:104FA0000000A07CFFFFEF7F00CC000880C8000855
:104FB00054C8000844C8000848C80008102AD8BFD0
:104FC00009EB890915464FF00000D8BF01EB4909EC
:104FD000FFF7BBBA0020FFF7A5BA1C9A3AB13521FA
:104FE0001EA804F0F9FC50461C9904F063F8013D3A
:104FF000042D3FF635AF01A353F825F04B4E0008C2
:10500000255000081F500008115000084B4E0008A2
:105010004FF0FF336FF00045CDE9043520E7AF4B8B
:1050200005931DE71E9B04931F9B059318E71B9B8D
:1050300006461A465B441B93814612F80B40FFF765
:1050400066BA0B98A649DDE9042301EBC001D1E95A
:105050000001FBF7EDFA83468946FFF780BB8346E4
:105060000A95FFF775BA00229E4B0F9DCDE91823D4
:105070009D4C56E59A4CC5F10F0504EBC501DDE9E1
:105080000423D1E90001FBF7D3FA0B9B5D1B04EB72
:10509000C504D4E90023FBF7CBFA83468946FFF722
:1050A0005EBB0F9B5E46CC460B97DDF828B00C9F8D
:1050B000DDF84490002B6FD0DDE904458B4BC5F340
:1050C000130199422A463CD0002F00F0AB80DDE965
:1050D00004231F421C4621D00F9B58464946002BF3
:1050E00000F0C28004F05CFB089D02460B467DB1D7
:1050F000C4F30A54C4F16B04002C09DD240504F147
:105100007F53002203F54013FBF792FA02460B4649
:1051100058464946FBF7D6F883468946089B73B143
:1051200058464946724B0022FBF782FA03460B436E
:1051300008BF22238346894608BFCAF800301C985E
:1051400062E5089B0499002B00F0BB80634B2B4069
:10515000B3F1D46F00F2B5804FF0FF301B0DC3F1F7
:105160006B0300FA03F39942AED1624B9A4200F00E
:10517000E0805A4B134003F58013059300230493FA
:10518000DDE904349B46A146C8E701F15473059359
:1051900000230893FFF716BBDDE90412C2F31303E3
:1051A0000B43144690D1089B002B40F0B7804B4B2B
:1051B0002340A3F580136FEA13536FEA035305935B
:1051C0004FF0FF330493DDE904349B46A146A5E785
:1051D0000F9BDDE904120B4358465E46DDF8449010
:1051E000DDF828B00B9799D1C2F313031446002BB6
:1051F00094D122F000431B0D1B05B3F1D66F8DD95E
:10520000436913B90369012B88DD314601225046F9
:1052100004F08AF94146064604F0FCF900287FF7BD
:105220007DAFC0E7DDE904341CEA030F3FF476AF3D
:1052300052E731491BA81EAA03F0E4FA05287FF4BF
:1052400085AA1F9B43F0FF4343F4E00305931E9B95
:105250000493DDE904349B46A146FFF780BA274B4F
:105260004FF00009089354E504F09AFA089D0246AD
:105270000B46002D44D0C4F30A54C4F16B04002C37
:1052800009DD240504F17F530F9A03F54013FBF762
:10529000CFF902460B4658464946FBF711F8002263
:1052A000002383468946FBF7BBFE00283FF438AF56
:1052B00047E64FF0FF3202FA03F3049A1A400492D1
:1052C000B3E54FF0FF334EE74FF0FF33C2F14B022F
:1052D00003FA02F202EA01030593A6E50000F07F5B
:1052E00000CC00080000E0BF0000E03FFFFF0F001F
:1052F00000005039FFFFEF7F68C80008D8CB0008D6
:1053000058464946FAF7DCFF0022002383468946C7
:10531000FBF786FE00283FF412AF12E6074B23404E
:10532000B3F1D66F3FF745AFB3F15C7F3FF7F8AE0F
:1053300007E601317FF41DAFFFF7A9BB0000F07F46
:105340002DE9F0410446214F0A46214B2146386899
:10535000FFF75AF802460B460C460546FBF792FE4D
:1053600040BB21462846FBF775FB20F00048064667
:1053700018494046FBF7E4FEC8B940461549FBF71B
:105380001FFDA0B924F0004428464FF0FF3221460B
:10539000114BFBF777FE38B928464FF0FF32214614
:1053A0000D4BFBF751FE10B122223B681A603046CC
:1053B000BDE8F081002C094804DA04F0BDFB00F1DF
:1053C0000046F4E7BDE8F04104F0B6BB0C00002055
:1053D00040040020FFFF7F7FFFFFEF7FE0CC00084D
:1053E0002DE9F04FD5B00C460C9191460E930A90E2
:1053F00003F0E4FA03681846179304F007FCA38946
:105400001690190603D52369002B00F08F8700241E
:105410002BAB224698464D46CDE929442893129459
:1054200000230024CDE914342B78CDE91922CDE9ED
:105430001B2218920892002B00F0CE81AA4604E0AD
:105440001AF8013F002B00F00981252BF8D1BAEBA7
:10545000050640F007819AF80030002B00F0BC816F
:1054600000234FF0FF324FF02B0920241F469AF8FB
:10547000016007920AF1010A8DF8833009930AF15D
:10548000010AA6F120035A2B00F22081DFE813F075
:10549000CA021E011E01C5021E011E011E01A30239
:1054A0001E011E016A00F3021E014702D9021E01FD
:1054B000D4025B005B005B005B005B005B005B0099
:1054C0005B005B001E011E011E011E011E011E016C
:1054D0001E01B0011E010B027A00B001B001B00143
:1054E0001E011E011E011E019E021E011E01B600AC
:1054F0001E011E011E0119021E014C021E011E0189
:105500003F071E011E011E011E011E011E011E017C
:105510001E01B0011E010B027C00B001B001B00100
:1055200091027C0075001E0184021E017002B80009
:105530005E0275001E01190272001C071E011E0189
:105540001F071E0172000022A6F130031AF8016B3A
:1055500002EB820203EB4202A6F13003092BF5D9DC
:1055600009928EE70E9B53F8042B002A09920E93A2
:10557000C0F2D2819AF8006081E79AF8006047F0A3
:1055800020077CE747F01007BA060E9B40F17D81AB
:10559000073323F007031A465B6852F8084B994615
:1055A0000E92002BC0F27F85079B013301F03980FA
:1055B00054EA090327F0800B00F005850A2C79F1E5
:1055C000000380F0938701235F4630348DF84F410C
:1055D0000B930DF24F15079A0B9900238A42B8BF1F
:1055E0000A4606929DF883200D930F931393109310
:1055F000002A7CD0069B0133069378E047F0100721
:1056000017F0200900F032810E9B073323F00703C7
:10561000D3F8049053F8084B0E93002327F4806BC3
:1056200000228DF88320079A511C00F02A8254EA48
:1056300009012BF0800740F02382002A41F02B80E3
:10564000002B40F0C5841BF001030B9300F0548540
:1056500030230DF24F158DF84F31BCE7BAEB05063C
:1056600000F0BA802A9BC8E9005633442A93299B4C
:105670000133072B299305DC08F10808089B334404
:105680000893E8E60C990A9828AA04F071FB80B9FF
:105690000DF1AC08F2E70C990A9828AA04F068FB0F
:1056A000002800F08A800D9B1BB10D990A9802F02A
:1056B0005BFC0C9B9B8913F0400F089B18BF4FF0BD
:1056C000FF330893089855B0BDE8F08F002E00F026
:1056D0008380012300228DF8EC6006933BAD8DF8AA
:1056E00083200B930D9207920F921392109217F052
:1056F000020302D006990231069117F0840B07D1FC
:1057000009990698A1EB0009B9F1000F00F336835F
:105710002A9C82B10122C8F80420299A013401325E
:105720000DF18301072A2A942992C8F8001000F38A
:10573000698308F108087BB10223C8F80430299B6B
:105740000234013321AA072B2A942993C8F8002098
:1057500000F36C8308F10808BBF1800F00F02E8283
:10576000079B0B9AA3EB020BBBF1000F00F37182B6
:10577000FB0500F1C5810B9BC8F800501C44C8F81C
:105780000430299B2A940133072B299300F3EA82E2
:1057900008F108087B0705D5099B069A9D1A002D7C
:1057A00000F35083DDE9083206998A42ACBF9B18AA
:1057B0005B180893002C7FF46EAF002329930D9B98
:1057C0001BB10D990A9802F0CFFB55460DF1AC08BC
:1057D0002B78002B7FF432AE2A9B002B3FF469AF6D
:1057E0000C9C0A98214628AA04F0C2FAA38962E711
:1057F0000E9B073323F00702F2E80234CDE914349C
:10580000DDE9143424F00044994618460E922146EE
:105810004FF0FF32B64BFBF735FC002840F0968482
:10582000484621464FF0FF32B14BFBF70DFC0028F4
:1058300040F08C84DDE9140100220023FBF7FAFB21
:10584000002840F0A6879DF8832000210320A94D61
:10585000A94B27F080070D910690472EC8BF1D4623
:1058600007910B900F9113911091C1E617F010035F
:1058700040F0628417F0400200F07B870E9A994650
:1058800052F8044B0E92A4B2C7E653F8044B0E93A1
:10589000FB0600F141847D0640F13B8444F3C039AE
:1058A0004B4624B27DE6012000220E9B069053F861
:1058B000041B3BAD8DF883208DF8EC100E930B90FC
:1058C00010E74FF000090E9C079B54F8045B8DF81D
:1058D0008390002D00F0EE865A1C00F060851A4679
:1058E0004946284603F038FB0D90002801F09E80C1
:1058F0000D9B9DF883205B1B0B9323EAE373CDF88C
:105900001C900E940693CDF83490CDF83C90CDF8D1
:105910004C90CDF840906BE6099B5B4209939AF856
:10592000006047F00407AAE547F0100B1BF02009C0
:1059300000F0AA830E9B073323F007031A4652F8A0
:10594000084BD3F804900E92012369E630227826A2
:105950000E9B8DF8842053F8044B684A0E934FF049
:105960000009022347F0020B8DF88560189257E674
:10597000BD0600F1D683FC0600F19386780600F19F
:105980005D87B90540F18D860E9B089953F8042B6D
:10599000554611700E931BE79AF800606C2E03BFFA
:1059A0009AF8016047F020070AF1010A47F0100752
:1059B00065E59AF80060682E03BF9AF8016047F425
:1059C00000770AF1010A47F0400758E59AF80060AD
:1059D00047F0080753E50A9E304602F0EFFF4368A0
:1059E00018461B9304F012F9034630461C931E46DA
:1059F00002F0E4FF83681993002E3FF4BBAD199BBE
:105A0000002B3FF4B7AD199B1B78002B3FF4B2ADD0
:105A10009AF8006047F4806731E59AF8006047F033
:105A200001072CE59DF88330002B7FF4A3AD9AF895
:105A300000608DF8834022E59AF8006047F0800707
:105A40001DE5524612F8016B2A2E01F0EB81A6F1FA
:105A50003003092B924698BF002201F203801AF806
:105A6000016B02EB820203EB4202A6F13003092B29
:105A7000F5D9079205E59AF800608DF88390FEE469
:105A8000BB46012B3FF49AAD022B54AD12D1189AAC
:105A900004F00F03D35C240944EA09744FEA19198E
:105AA00005F8013D54EA0903F2D154AB5B1B5F4694
:105AB0000B9390E504F00703E40844EA49744FEAC5
:105AC000D909303354EA09012A4605F8013DF1D1DC
:105AD0001BF0010FE9D0302BE7D03023023A05F854
